:1000000000800020BD01000005150000C1140000A3
:10001000C1140000C1140000C1140000C11400008C
:10002000C1140000C1140000C11400000515000037
:1000300005150000C1140000F5280000F928000093
:100040000515000005150000051500000515000048
:100050000515000005150000051500000515000038
:100060000515000005150000051500000515000028
:100070000515000005150000051500000515000018
:100080000515000005150000051500000515000008
:1000900005150000051500000515000005150000F8
:1000A00005150000051500000515000005150000E8
:1000B00005150000051500000515000005150000D8
:1000C00005150000051500000515000005150000C8
:1000D00005150000051500000515000005150000B8
:1000E00005150000051500000515000005150000A8
:1000F0000515000005150000051500000515000098
:100100000515000005150000051500000515000087
:100110000515000005150000051500000515000077
:100120000515000005150000051500000515000067
:100130000515000005150000051500000515000057
:100140000515000005150000051500000515000047
:100150000515000005150000051500000515000037
:1001600005150000251C0000051500000515000000
:100170000515000005150000051500000515000017
:100180000515000005150000051500000515000007
:1001900005150000051500000515000005150000F7
:1001A00005150000051500000515000005150000E7
:1001B000051500000515000005150000574B4CF211
:1001C000205210B5DA814DF62812DA8100BF00BF47
:1001D00001F09CF9524B4FF010621A63514A9A6336
:1001E000514ADA63514A136913F4807303D153619E
:1001F0004FF4A85313614E4B9A78110703D59A78A0
:1002000042F008029A704B4B4B482A221A704B4B13
:10021000DA1C121AC11E22F00302994288BF002282
:10022000474901F079F8474B4748DA1C121AC11EBA
:1002300022F00302994288BF0022002104F090FFBF
:10024000424943484FF4DE7201F066F8414B424A9E
:10025000802103F8011B9342FBD14FF0E0233C4A7D
:10026000C3F8082D3D4B8A221A70A3F5805324222F
:100270005A70A0221A709A799207FCD59A79D406FE
:10028000FCD4374B9A7902F00C02082AFAD10522E5
:100290001A7143225A719A799006FCD5304A9379A3
:1002A0005906FCD51E4B4FF08171596405219964A4
:1002B00020211170917901F00C010C29FAD1294A01
:1002C0005A604FF0E023284A5A6100229A610722BF
:1002D0001A61264AC3F8202D62B601F0AFF9134B1C
:1002E0005B69DA0705D5224801F09CF9214B224AC7
:1002F000DA61224B1B785B0609D51E4C1E4BE26966
:100300009A4204D11A4801F08DF90023E36101F00B
:1003100003F905F01FF900F0F7FFFEE700200540A4
:1003200000800440823F04000100002B00D0034005
:1003300000D0074000E007402087FF1FB891FF1F53
:1003400060BF00006896FF1FB891FF1F000000000B
:100350000082FF1F00E400E05FE400E00050064080
:1003600000400640C01005003F1901000000202099
:10037000B0A6EF6700E00340A5C3945A00F0074021
:10038000FFFFFFFFFFFFFFFFFFFFFFFFFFFFFFFF7D
:10039000FFFFFFFFFFFFFFFFFFFFFFFFFFFFFFFF6D
:1003A000FFFFFFFFFFFFFFFFFFFFFFFFFFFFFFFF5D
:1003B000FFFFFFFFFFFFFFFFFFFFFFFFFFFFFFFF4D
:1003C000FFFFFFFFFFFFFFFFFFFFFFFFFFFFFFFF3D
:1003D000FFFFFFFFFFFFFFFFFFFFFFFFFFFFFFFF2D
:1003E000FFFFFFFFFFFFFFFFFFFFFFFFFFFFFFFF1D
:1003F000FFFFFFFFFFFFFFFFFFFFFFFFFFFFFFFF0D
:10040000FFFFFFFFFFFFFFFFFFFFFFFFDEF9FFFF23
:100410000548064B1B1AD90F01EBA301491002D066
:10042000034B03B118477047B891FF1FB891FF1FE6
:100430000000000008B5054B1BB105490548AFF3A6
:100440000080BDE80840FFF7E3BF00BF00000000E8
:10045000B891FF1F58BF000010B5134C134821215D
:1004600002F0A8F8204600F0D7FD1F21104802F046
:10047000A1F8204600F0D0FD20210E4802F09AF8A5
:10048000204600F0C9FD14210B4802F093F82046E5
:1004900000F0C2FD0948212102F08CF82046BDE899
:1004A000104000F0B9BD00BF488AFF1F94B00000A3
:1004B000B8B00000D8B00000FCB0000014B10000DB
:1004C00010B5324C32481E2102F074F8204600F07C
:1004D000A3FD13212F4802F06DF8204600F09CFD8B
:1004E0002C212D4802F066F8204600F095FD2E21C3
:1004F0002A4802F05FF8204600F08EFD19212848B6
:1005000002F058F8204600F087FD1921254802F036
:1005100051F8204600F080FD1D21234802F04AF8E2
:10052000204600F079FD2121204802F043F82046C2
:1005300000F072FD25211E4802F03CF8204600F034
:100540006BFD1C211B4802F035F8204600F064FDCD
:100550003821194802F02EF8204600F05DFD4721B1
:10056000164802F027F8204600F056FD2E211448C8
:1005700002F020F8204600F04FFD12481D2102F045
:1005800019F82046BDE8104000F046BD488AFF1F1C
:1005900038B1000058B100006CB100009CB10000FF
:1005A000CCB10000E8B1000004B2000024B20000A9
:1005B00048B2000070B2000090B20000CCB200005F
:1005C00014B3000018B100002DE9F0432B4D2C4866
:1005D0002B682C4EDFF8B0802C4F83B01F210124F4
:1005E0009C4001F0E7FF294800F016FD284A294900
:1005F000264800F029FD284A2849244800F024FD17
:100600002A6827492148274D00F01EFD264B27491F
:100610001A681E48013C00F017FD224624491B4879
:10062000244C00F011FD1D21234801F0C3FF1748A1
:1006300000F0F2FC1C21214801F0BCFF134800F03F
:10064000EBFC04F1300940F26B10042203E056F891
:10065000042F55F8040F54F8043B009041463846E7
:1006600000F0F2FC4C45F2D11D21154801F0A2FF2B
:10067000064803B0BDE8F04300F0CEBC288AFF1F57
:1006800044B30000B4B5000000B40000488AFF1F66
:1006900000A24A0464B300000051250278B30000B0
:1006A0008CB3000084B50000248AFF1FA0B30000B3
:1006B000C0B30000EC91FF1FE0B3000070B2000077
:1006C00018B10000F8B50E4B0E481B680E4F0F4DC9
:1006D000D840386005F12C06042402E055F8044F98
:1006E000386803F0D7FBE4B20146204601F018F960
:1006F0000021204600F0F4FFB542EFD1F8BD00BF65
:10070000288AFF1F00512502248AFF1FB4B500006C
:10071000A0F10802082A00D97047F8B50C4A0D4C20
:1007200010600D4D01F0EEF804F1300704200026B2
:1007300001E055F8040F44F8046BC0B2002100F04A
:10074000CFFFBC42F5D1BDE8F840FFF7BBBF00BF0B
:10075000288AFF1FEC91FF1FB4B500002DE9F84F68
:10076000454C464FDFF8188100254FF082464FF088
:100770007E5A43E04146484603F09CFD00B1C14625
:10078000D4F80CB0C4F808900021584603F074FD6A
:1007900000286AD13A49584603F08CFD002867D1F9
:1007A0003849584603F068FD20B95946404603F0E1
:1007B000BBFA8346D4F810902946484603F05CFD06
:1007C00000284CD15946484603F074FD00B9CB4689
:1007D000D4F81490C4F810B02946484603F04CFDF4
:1007E000002833D15146484603F064FD00B1D1469C
:1007F000254BC4F8149018349C422ED0D4F80090A5
:100800002946484603F038FD68BB3146484603F0A8
:1008100051FD00B1B146D4F804B0C4F800902946A7
:10082000584603F029FDE0B93146584603F042FD31
:1008300000B1B346D4F80890C4F804B0394648462D
:1008400003F01AFD002895D0B94699E70E4BA9464A
:10085000C4F8149018349C42D0D1BDE8F88FAB4650
:10086000B6E7AB46E6E7A946D5E7E560AB46A1E7C4
:10087000C4F80C80AB469DE72487FF1F0AD7233CB2
:100880000000C842000048427488FF1F2DE9F04371
:10089000634C644E644DDFF8949185B004F13007E9
:1008A0004FF0010805E0A74206F1040605F1040532
:1008B00013D054F8041B0029F5DBD9F8003008FAEE
:1008C00003F39942EFDA2878316000F009FFA7427C
:1008D00006F1040605F10405EBD1554E554D376878
:1008E000554C564807EB470705EBC7070023236025
:1008F000B96803F0D7FB4FF07E5103F015FA03F00F
:1009000009FD206103F0C2FAF96803F017FB4C49B6
:1009100003F0C8FB03F0FEFCA06003F0B7FA3969EE
:10092000074603F00BFB464903F0BCFB0021804661
:1009300003F0FCF903F0EEFC41466060384603F03A
:10094000F5F903F0E7FC2E21E0603E4801F032FEAD
:100950003D4800F061FB32683C493B4800F074FBC5
:10096000336803EB430355F8330003F0ADFC38491B
:100970000246354800F068FB336803EB430305EBA0
:10098000C303586803F0A0FC324902462E4800F029
:100990005BFB336803EB430305EBC303986803F089
:1009A000C9F802460B4628482B4900F04DFB336836
:1009B00003EB430305EBC303D86803F0BBF802461F
:1009C0000B462148254900F03FFB336803EB430306
:1009D00005EBC303186903F0ADF802460B461A484D
:1009E0001F4900F031FB336803EB430305EBC305FC
:1009F000686903F09FF802460B461348194900F056
:100A000023FB94E82C002069E168019102901649CB
:100A100000950D4800F018FB05B0BDE8F08300BF5D
:100A20007488FF1FEC91FF1FB4B50000288AFF1FD8
:100A30001C92FF1F2487FF1F2C8AFF1F002474496C
:100A40000000C8421CB40000488AFF1F4CB40000DC
:100A500064B400007CB4000094B40000B0B40000A2
:100A6000CCB40000E8B4000000B500002DE9F0436C
:100A700085B0A2490446684600F04EFB6946204610
:100A800000F0C0FB0546684600F00AFBC5B32C2108
:100A9000204600F0CBFB051E02DC05B0BDE8F0836C
:100AA0002B4621460122684600F0FCFB684600F018
:100AB00025FC0646684600F0F3FA21466A1C6846A3
:100AC00000F0C4FB684600F019FC0446684600F0DC
:100AD000E7FA8B4B0B2E1B68DFD8002CDDDB0122E5
:100AE00002FA03F39C42D8DA864A874B12F82600B2
:100AF00043F82640214605B0BDE8F04300F0F0BDC4
:100B00008249684600F008FB6946204600F07AFBFF
:100B10000546684600F0C4FA8DB1214601226846B8
:100B200000F094FB684600F0E9FB0446684600F0DC
:100B3000B7FA204605B0BDE8F043FFF7E9BD7449B8
:100B4000684600F0E9FA6946204600F05BFB05467E
:100B5000684600F0A5FA8DB96E49684600F0DCFAE7
:100B60006946204600F04EFB0546684600F098FABC
:100B70004DB105B0BDE8F043FFF7A2BC05B0BDE83C
:100B8000F043FFF769BC6449684600F0C5FA69465E
:100B9000204600F037FB0546684600F081FA002D3C
:100BA00045D15E49684600F0B7FA6946204600F034
:100BB00029FB0546684600F073FA002D3CD021461B
:100BC0000122684600F042FB684600F097FB0828C7
:100BD0000646A8BF082626EAE676684600F060FAD0
:100BE000494D4F494F48504CDFF81491324600F0C0
:100BF0002BFA06EB460204EB0214424E05F13007D5
:100C00004FF0010804E00435BD4206F104060ED0A1
:100C100054F8041B0029F6DBD9F8003008FA03F376
:100C20009942F0DA3078296000F05AFDEBE705B020
:100C3000BDE8F043FFF7C8BC3C49684600F06CFAD9
:100C40006946204600F0DEFA0546684600F028FABC
:100C5000BDB121460122684600F0F8FA684600F06E
:100C60004DFB0446684600F01BFA0D2C304AA8BF25
:100C70000D2424EAE474146005B0BDE8F043FFF7E6
:100C800005BE2C49684600F047FA6946204600F048
:100C9000B9FA0546684600F003FA002D3FF4FDAEB0
:100CA000052321460322684600F0FCFA684600F05E
:100CB00025FB0546684600F0F3F905222146684603
:100CC00000F0C4FA684600F019FB0446684600F0DC
:100CD000E7F90B4B0B2D1A683FF6DFAE002CFFF641
:100CE000DCAE012393409C42BFF6D7AE054A064BCB
:100CF00012F8250043F825402146FCE630B50000F7
:100D0000288AFF1FB4B50000EC91FF1F34B5000026
:100D100038B500003CB5000040B5000044B5000007
:100D200048B50000488AFF1F7488FF1F5CB50000AB
:100D30001C92FF1F60B5000030B51D4C2368BFF347
:100D40005B8FDB0785B021D51A4C1B4D01F000FCF1
:100D500058B101F0C1FBC1B22A29204607D000F0EA
:100D600041FA01F0F5FB0028F3D105B030BD214672
:100D7000684600F077F96846FFF778FE684600F0AD
:100D80008FF92946204600F0DBF9DFE7204600F026
:100D9000EDFB0028D8D00849064800F0BDF9074A05
:100DA0000749044801F06CFE204600F0E5FBCBE764
:100DB000D091FF1FD491FF1F2CB500002087FF1F8B
:100DC000A11000002DE9F84F5B4E5C4C5C4D00F02B
:100DD0004DFE33682269C31A93422B6000F2A28051
:100DE00025689D4210D866689E4240F28380581B59
:100DF00003F04CF80446701B03F048F80146204607
:100E000003F050F9804601E04FF00008DFF834911C
:100E10004D4ED9F8005005EB450206EBC202002109
:100E2000546920464FEA450B03F01CFAB0B920463E
:100E30004FF07E5103F016FA002858D0434940463F
:100E400003F07CF801F022FE01464FF07E5002F0E4
:100E50006BFF4FF07C5103F071F880463C4FDFF898
:100E6000F4A0002406E001340C2C3ED0D9F8005048
:100E70004FEA450B0BEB050306EBC30556F83300B1
:100E800003F022FA00EB400004EB8003686857F897
:100E9000235003F019FA00EB400004EB800057F8F0
:100EA0002000401B02F0F6FF414603F047F883465E
:100EB000284602F0EFFF0146584602F037FF03F0E4
:100EC00003FA011E4FF00103CDDBDAF80020934056
:100ED0009942C8DA204B43F82410204B13F8240021
:100EE000013400F0FDFB0C2CC0D1BDE8F88F4FF0B1
:100EF0000008B3E7A5689D421AD8E4689C4283D9EC
:100F0000581B02F0C3FF0646601B02F0BFFF0146FC
:100F1000304603F0C7F801464FF07E5002F004FF60
:100F2000804673E700F0A2FD002330602B6057E796
:100F30004FF07E586AE700BFE891FF1F2C8AFF1F21
:100F4000E491FF1F1C92FF1F2487FF1FDB0F494006
:100F50007488FF1F288AFF1FEC91FF1FB4B50000A3
:100F60002DE9F8431E4D1F4C2E681F4FDFF87C9073
:100F700040F2EE2801F024FC23781BB33B78DB071A
:100F800020D52B68D9F800209B1A0E2B1AD9FFF711
:100F900063FA174B174C1868FFF7BAFBFFF7DEFB35
:100FA0000720002100F026FD04F11C05002001E0CF
:100FB00054F8040FC0B2022100F01CFDAC42F7D17E
:100FC000BDE8F8832B6822789B1B2AB1B3F5FA6F32
:100FD000DDD801F0F5FBCDE74345FAD9D7E700BFEF
:100FE0002092FF1F0093FF1F2493FF1F2893FF1FD2
:100FF000288AFF1F64B50000FFF7B2BF08B5FFF7EE
:101000009BFE044B1B68002B00DC08BDBDE80840BC
:10101000FFF7D8BE1C92FF1F00B5036883B040F6EF
:101020000D22ADF804205B68022201A9984703B0A5
:101030005DF804FB034B022888BF034618461B6873
:101040005B681847488AFF1F0EB400B582B003AA38
:1010500052F8041B019203F0D7FF02B05DF804EBD5
:1010600003B07047F8B588424FF0000504460560AC
:1010700045608560057302D08E680F680EB9204602
:10108000F8BD701C03F06AF90028F8D0C4E9000626
:101090000570A660394604F0FFF92046F8BD00BF90
:1010A00010B50446006803F061F9204610BD00BF8A
:1010B000F8B50446154632B9036803B11A70002327
:1010C000A3602046F8BD43689A420E461CD90068CA
:1010D000511C03F00FFC074660B1A36820606560F7
:1010E0000BB903702768A5603146384604F0D4F97F
:1010F0002046F8BD206810B103F038F927600023BE
:101100006360A3602046F8BD0768A5603146384695
:1011100004F0C2F9ECE700BF38B5002304460360D1
:1011200043608360037341B108460D4604F048FAFA
:10113000294602462046FFF7BBFF204638BD00BFC8
:1011400038B505460C4649B1084604F039FA21463F
:1011500002462846FFF7ACFF284638BDA96028465E
:1011600038BD00BF2DE9F84304460068A3688842F3
:101170000D46164609D8C218914206D20F1A4FF0F2
:10118000010936B92046BDE8F8834FF00009002E6A
:10119000F8D0626803EB060890450CD908F101010C
:1011A00003F0A8FB0028EDD0A368C4E9000813B938
:1011B00003702068A368B9F1000F08D129461844CC
:1011C00004F06AF9C4F808802046BDE8F883324686
:1011D000C119184400F0A0F82368002203F8082081
:1011E000F0E700BF10B582B000238DF80410012293
:1011F00001A904468DF80530FFF7B4FF204602B080
:1012000010BD00BF08B58A688368934209D300689F
:1012100030B1096839B104F05BF8B0FA80F04009E8
:1012200008BD002008BD084608BD00BF83683BB16B
:1012300010B50468204603F0E5FF20B1001B10BD87
:101240004FF0FF3070474FF0FF3010BD2DE9F041F7
:101250008F6897420E46044602D213463A461F460E
:101260000023A3602373B06823609042636014D3AB
:10127000874228BF0746316811F80780CB5533688D
:101280009D180DD0284604F09BF9294602462046B9
:10129000FFF70EFF336803F807802046BDE8F081B2
:1012A000A560F8E79A422DE9F04104460E4602D9BE
:1012B00011461A460B460020A0602073B7682060D4
:1012C0009742606014D39F4228BF1F46336813F8CB
:1012D0000780D85533689D180DD0284604F070F962
:1012E000294602462046FFF7E3FE336803F80780ED
:1012F0002046BDE8F081A560F8E700BF006808B1AE
:1013000003F028B8704700BF08B5FFF775FEFFF778
:1013100075FE01F055FAFAE701B441EA000313F053
:1013200003036FD1403A41D351F8043B40F8043BEA
:1013300051F8043B40F8043B51F8043B40F8043BAF
:1013400051F8043B40F8043B51F8043B40F8043B9F
:1013500051F8043B40F8043B51F8043B40F8043B8F
:1013600051F8043B40F8043B51F8043B40F8043B7F
:1013700051F8043B40F8043B51F8043B40F8043B6F
:1013800051F8043B40F8043B51F8043B40F8043B5F
:1013900051F8043B40F8043B51F8043B40F8043B4F
:1013A00051F8043B40F8043B403ABDD2303211D3EF
:1013B00051F8043B40F8043B51F8043B40F8043B2F
:1013C00051F8043B40F8043B51F8043B40F8043B1F
:1013D000103AEDD20C3205D351F8043B40F8043BEF
:1013E000043AF9D204320AD0D2071CBF11F8013BEB
:1013F00000F8013B03D30B7803704B78437001BCBA
:10140000704700BF0C2A4AD310F0030311D0C3F178
:101410000403D21ADB071CBF11F8013B00F8013BA3
:1014200007D311F8013B00F8013B11F8013B00F82C
:10143000013B11F003033FF475AF30B4043AC91A0D
:10144000C3F1040C51F8044B022B19D0032B0BD021
:10145000240A51F8043B1D0644EA050440F8044BF5
:101460001C46043AF4D216E0240E51F8043B1D0247
:1014700044EA050440F8044B1C46043AF4D20AE05E
:10148000240C51F8043B1D0444EA050440F8044BC5
:101490001C46043AF4D20432B1EB0C0130BC043ADD
:1014A000A0D3013A11F8013B00F8013BF9D20B78C7
:1014B00003704B7843708B78837001BC704700BF1A
:1014C00008B50F4C636B58030DD4636B59050FD4EB
:1014D000636B1A0511D4636BDB04F3D500F012F8CB
:1014E000636B5803F1D500F09DFB636B5905EFD595
:1014F00000F008F8636B1A05EDD500F003F8EAE791
:101500000080044008B5FFF7DBFF00BF014B10224D
:101510001A80704700200540704700BF094A08B58F
:101520000346106833B169460344A1F580518B42EC
:1015300001D2136008BD03F0A9FF0C2303604FF034
:10154000FF3008BD408AFF1F002070474FF0FF307A
:10155000704700BF4FF400534B600020704700BF3E
:10156000012070474FF0FF30704700BF0078B0FA9D
:1015700080F04009704700BF01230370704700BF2F
:10158000FEE7FFFF01F1FF3C70B56546002401E076
:1015900070460134B0FBF2FE02FB1E03092B03F17F
:1015A00030068ABF3733F3B2DBB2904205F8013F11
:1015B000EED2631C0022CA54C8187CB162461CF8E3
:1015C000015F10F801ED8CF800E0A1EB0C03023292
:1015D000013B521A23449A420570EFDB084670BD66
:1015E00010B40F4B53F8302092F880422CB10123F5
:1015F00091B182F8803010BC704703EBC0035B6888
:101600001A6821B922F0020210BC1A60704742F039
:10161000030210BC1A60704782F8003110BC70479A
:10162000E4B50000034B002210215A615A60186093
:101630005961704700D00340704700BFF0B54FF0CC
:10164000E0244FF400054FF0807CC4F80851C4F842
:1016500008C14FF0007CC4F808C11D4A1D481E494E
:101660004FF0806CC4F808C12823002748F6FF76A5
:1016700009254FF0006CC4F808C183B0576096602C
:10168000D3605361D3615362D3625363D3635364B2
:10169000156047608660C360436105604F608E607F
:1016A000CB604B610D6001F02FF9FFF7C5FF0B4CCC
:1016B00023680093009B132BFAD900F06DFE23687A
:1016C0000193019BB3F5967FF9D303B0F0BD00BF42
:1016D000008003400090034000800B402092FF1FD9
:1016E00028287F4B36D000291B783FDD012202FAE3
:1016F00003FC614510B554D2C21E012A70D92028BE
:1017000067D0192865D0774A926802FB011222FA45
:1017100003F3421F1B2A7DD8DFE812F0C600BF008A
:101720007C007C00B800B1007C007C007C007C0068
:101730007C007C007C007C007C00AA00A3009C0054
:1017400095007C00CD007C007C007C007C007C004F
:101750007C00D40018780B2895BFC0F10C000C3821
:1017600001FA00F041FA00F001F032B9212817D84F
:101770005D4B53F8302092F8801203EBC003002930
:101780003CD001215B6882F8001101204FF4A27166
:1017900082F8800219601A6822F020021A607047ED
:1017A0007047212814D8504B53F8301091F88042DC
:1017B00003EBC00344B35B6881F880204FF4A2724E
:1017C000012081F880021A601A6822F020021A6053
:1017D00010BD464A926802FB011222FA03F398E711
:1017E000434CA268042802FB011222FA03F270D1D2
:1017F000404BA2614FF45171596310BD5B68196889
:1018000021F002011960C0E75B681A6842F0030228
:101810001A60D3E72128DBD87F29D4BF002101211A
:10182000FFF7DEFE304B03EBC00253F83010536875
:1018300001244FF4A27281F880421A601A6822F0E3
:1018400020021A6010BD27482B4A836140F24441B0
:10185000916010BD2348284A036140F24441516021
:1018600010BD2048254A036440F24441916110BDF7
:101870001C48224A836340F24441516110BD19481B
:101880001D4A836240F24441116110BD15481A4A55
:10189000036240F24441D16010BD1248174A03630D
:1018A00040F24441116110BD0E48144A836440F275
:1018B0004441D16110BD0D48114A83614FF451710B
:1018C000D16410BD09480E4A03614FF4517191640F
:1018D00010BD084B22614FF45171196310BD00BF58
:1018E000448AFF1F00800340E4B5000000800B40E5
:1018F000009003400090044000B0044000C0044049
:1019000000A004400346102B28BF1023034A012BDC
:1019100038BF012310781370704700BF448AFF1F3F
:101920002DE9F0470E4680462C49304602F0A4FCD3
:101930002B4B002847F6122712BF4FF0020A4FF038
:10194000010A1F4600244FF05E5927FA04F002F006
:101950009DFA4946054602F0F1FA0146304602F08A
:101960009FFC30B90134072CEFD1F80902F08EFA50
:1019700005463146284602F095FB4FF07C5102F0B7
:10198000D3F902F0C7FC4FF6FF73984228BF184600
:10199000A8F10303012B11D9A8F105085FFA88F813
:1019A000B8F11B0F08D80F4A012303FA08F31A40B5
:1019B00010D113F0016F0BD1BDE8F0870A4B002264
:1019C00044EACA041A605A6098601C60BDE8F08757
:1019D000064BF5E7064B0022F2E700BF4054894072
:1019E00000512502338007000090034000800B4027
:1019F00000800340212820D81B4A02EBC0030129A4
:101A00005B680FD004291DD052F83000002280F806
:101A1000802299B1022922D003290DD14FF481727D
:101A20001A60704752F830004FF4A27280F88012AA
:101A30001A601A6822F020021A6070474FF4807210
:101A40001A60704752F830104FF4A272012081F8EA
:101A500080021A601A6842F020021A60704740F251
:101A600003121A60704700BFE4B5000072B60D495A
:101A70004FF0E02293690868D2F8042D62B6520153
:101A800002D5322B88BF0130074AC3F58C334FF49F
:101A90007A7103F23F13A2FB032301FB00F000EB7A
:101AA000131070472092FF1F398EE338431E032B1B
:101AB00017D872B60C4951F8230080B110B40B4C02
:101AC000B0F800C034F81320A2EB0C02D0F804C028
:101AD00041F823C024F8132062B610BC704762B6E8
:101AE00070470020704700BFB492FF1F0493FF1F90
:101AF000013803280BD872B6074B53F8203043B196
:101B000000205B680130002BFBD162B670470020DB
:101B100070471846F9E700BFDC92FF1F10B472B699
:101B2000194A1A4C042312F8011B090743F0010C4F
:101B300005D554F8331061B154F83C10B9B10433F1
:101B4000142BF0D162B6124B00221A7010BC00F0B8
:101B50009BBC0F4904EBC302083050600A780D4863
:101B600044F83300013A0A7062B610BC7047084A64
:101B7000094904EBCC0308305860137844F83C1052
:101B8000013B137062B6F0E774B700000080FF1FDE
:101B90000C93FF1F88004000C8004000421E032A2B
:101BA0000ED81C4B400140F0100010B4034472B634
:101BB000194CA05C03281CD8DFE800F013150318AB
:101BC00070470520A05413F0080F088814BFC822DE
:101BD0008822083142EA004259601A6062B610BC9D
:101BE00070470320EEE708330220EBE708330420B8
:101BF000E8E70A4B53F8220038B1094B53F82200AA
:101C0000416043F8221062B6E9E743F82210044B22
:101C1000F7E700BF0080FF1FFC92FF1FDC92FF1F51
:101C2000EC92FF1F2DE9F04FDFF8CCA2DFF8CCB229
:101C300085B03DE0B24D9E0805EBC607013A7968D4
:101C400013F00803D4B2A1F1080040F0B88055F8B1
:101C500036204FEA124C120C21F808CC00F0A78075
:101C600021F8063C41F8043CA64B53F82420002AF6
:101C700000F00182A44B53F82420506043F8240064
:101C8000A24B33F81420944423F814C000F0DCFB7A
:101C9000002800F0E98117F0080F9D4B00F10800C3
:101CA00018BF5B46786045F8363008238AF88030E4
:101CB0009AF880305907DCB21BD5964B1B78ABB134
:101CC00095490A7802F0FF032AB1013BDBB20B70A1
:101CD000002B00F0468391490A7802F0FF032AB1F5
:101CE000013BDBB20B70002B00F0EB8104238AF880
:101CF000803014F0080200F0CC819AF89020D3B222
:101D0000120997D1DFF8F8919B0809EBC30459F841
:101D100033006468C0F3830009287CD00FD80138F1
:101D2000012808D87E4A158842F22100854200F039
:101D3000FB8149F833B001238AF89430B5E70D28C8
:101D4000F9D1D4E90007774D49F833B0744E764C99
:101D5000C9F8102083B240F2816CC9F818202A60BB
:101D600063454FF00102C6E90007227000F2FF80D0
:101D7000B3F5D06F80F0CB82B3F5817F00F026827F
:101D800040F2DE8040F2023293427BD107F07F07BF
:101D9000042F00F20881020C40F00581634911F81C
:101DA000273043F0020301F82730134670E017F0A4
:101DB000080F574B18BF5B4645F8363075E700F003
:101DC00063FB5B495B4A51F82430002B00F05781DC
:101DD000586841F82400115D03F108007860032978
:101DE00005D8DFE801F0120F1502042111551A88F9
:101DF00017F0080F14BFC823882343EA024345F8AD
:101E0000363052E702211155F1E703211155EEE773
:101E100005211155EBE7434D2A683AB34649424C38
:101E20000F88464894F800E00678402F3B4628BFCC
:101E30004023BEF1000F8EF0010E84F800E046F062
:101E4000020486F00106067009EBC400426014BF6C
:101E5000C820882040EA03401A44FB1A9BB249F884
:101E600034000B80002B00F036812A602C4B1A883E
:101E7000B2F5A06F7FF45FAF9A788AF898200022BD
:101E80005A7058E7B3F5A06F40F08D8000221346DA
:101E9000B6F806C02948944528BF9446674602789C
:101EA000402F28BF402742F0020E3E0409EBCE0827
:101EB00046F0C806C8F8043049F83E6000263B44A6
:101EC0002670BCEB070782F00106067040F0118116
:101ED000BCF13F0F4FF0010509D946F00206027030
:101EE00009EBC60225705360882349F83630012378
:101EF0008AF894301FE700BF00200740C800400068
:101F00000080FF1FB492FF1FC492FF1F0493FF1FA6
:101F1000880040000093FF1F0193FF1F2C93FF1FB9
:101F2000D492FF1FA892FF1FA592FF1FC020074059
:101F3000DC92FF1FFC92FF1FA692FF1FA492FF1FBF
:101F4000802B00F08B81822B2DD107F07F07042F8F
:101F500029D8A74A00231380A64B13F827309F07E0
:101F600040F1FC8101231370A14B022290E742F261
:101F7000210C6345BBD01DD942F2212293420DD1E1
:101F8000BFB2002F82D19C4B1A689C4B1A609C4BAD
:101F9000C0F3074000221870134679E742F221325D
:101FA00093423FF473AF0F238AF8C03001238AF8BD
:101FB0009430C0E6B3F5086F00F04A81B3F5106FB6
:101FC000F1D1904BC0F307400425187059F8353013
:101FD0001A0606D40135142D0CD059F835301A06DE
:101FE000F8D509EBC50301355868083800F04CFAFC
:101FF000142DF2D1844A854B0292854A0192854E76
:10200000854ADFF818820394009200251C4656F892
:10201000047B2FB138467F6800F036FA002FF9D1E3
:10202000009BD8F8007043F8045B46F8045C00930A
:102030002FB138467F6800F027FA002FF9D1029BB4
:1020400048F8045B43F8045B0293019B23F8025BAE
:1020500001932378023B032B00F20981DFE813F0A0
:102060003F0104013F0104016D4A45F83600137831
:102070000133137019E643F82400674BFEE5115D48
:10208000022926D07FF611AE03291DD10123135555
:102090000BE6E0076ED4210621D4A20708D5614BD8
:1020A00093F888200221D2B283F8882083F8801028
:1020B000E30603D55B4B102283F8802005B0BDE812
:1020C000F08F00F059FB11E617F0080F14BF03233F
:1020D00002231355E9E53F2F98BF0022C5E6514B77
:1020E00080220D2183F8C01083F88020A207DFD55D
:1020F000D5E746F002060270402F09EBC6003A46CB
:1021000028BF402243601004134440F0880001219E
:10211000BA1A49F83600217055D02B60424B1A800C
:1021200001238AF8943006E692885AB93F4AE51DA1
:1021300014F8011B02F8011FAC42F9D13C4A1268A5
:10214000862A3CD03B4C3C4825780278002D85F00F
:102150000105257042F0020482F00102027009EBD1
:10216000C4024FF00000506014BFC822882249F812
:102170003420DEE52B4B30483049314C022583F8C2
:10218000945002702F480C602F4D48608C600D24D5
:10219000CD60FF200A618A6183F8C04001219F243D
:1021A00083F8880083F8800083F8982083F88C00F7
:1021B00083F8844083F8941005B0BDE8F08F234A7B
:1021C0000F201070BEE73F2FA7D890E607F07F07DB
:1021D000042F3FF6E8AE000C7FF4E5AE054A12F896
:1021E000273023F0020302F82730002213464FE67F
:1021F000AC92FF1FC02007402092FF1F2893FF1FB3
:102200002493FF1F0093FF1FEC92FF1FFC92FF1F00
:102210000493FF1FB492FF1FC492FF1FDC92FF1FA5
:102220000C93FF1F00200740A692FF1F1B93FF1F68
:102230001C93FF1FA592FF1FA492FF1F0080FF1F8A
:10224000880040002492FF1F6492FF1F0193FF1F2C
:10225000484B49491B780B700B4619E6464A002348
:102260001380454B022213E64FF001032370434BCA
:10227000B34204F101047FF4CAAE414E039CDFF87F
:102280000481414F00233370042518F8013B3F4A75
:10229000AB541B0725D445F0020145F00302043579
:1022A0000023142D49F8313049F83230EDD1384F40
:1022B00025783A7842F0020009EBC00C85F001065F
:1022C000CCF80430002D4DD1882382F00102267015
:1022D0003A7049F8303001238AF894302BE52570A4
:1022E000C5E700F0B1F8002832D009EBC50308308B
:1022F000586049F8357000F0A7F808B345F00103BD
:1023000009EBC3020830506049F833B0C3E7214AF3
:102310005368002B3FF447AE000CBFB204E01369D2
:102320000C32002B3FF43FAE11888142F7D1518827
:10233000B942F4D1000A03280CBF1A781289A7E524
:1023400033780133337045F0010349F83300A2E7D5
:10235000337849F8350001333370CCE7064B02225D
:1023600096E500BE2670C82382F001063E7049F84B
:102370003030BCE50093FF1FAC92FF1FC492FF1FDB
:102380000C93FF1F74B7000088004000C020074076
:10239000A492FF1F20B7000070B500F039FB0023A6
:1023A0001A4A194642F8331002EBC3000133142BCA
:1023B0004160F7D1164C174B606B174D40F48020ED
:1023C0006063C2F3072483F89C40144CFF204FF055
:1023D000010CC2F30746120E83F8B0604FF0E02EF6
:1023E00083F8B42083F8800083F88800187483F899
:1023F00094C0217083F884C0702385F849304FF46D
:1024000000721023CEF80821237270BD0080FF1FD8
:10241000008004400020074000E400E00021074065
:1024200000F0ACB800F07CB800F056B800F090B8FE
:1024300000F076B900F050B90846114600F0BAB87D
:10244000084600F03BB900BF72B60D490B68B3FAFD
:1024500083F00B2810DC4FF00042C24023EA020355
:102460000B6062B6074A00EBC000C10002EBC0007F
:10247000002353504360704762B60020704700BF8E
:10248000588AFF1FBC83FF1F0E4BC31AB3F5587F3A
:1024900010D20D4A127872B972B60C4A0C49A2FBDE
:1024A000032308684FF000421B0922FA03F3034399
:1024B0000B6062B67047074A1278002AECD0FFF72B
:1024C0002DBB00BFBC83FF1F0C93FF1F398EE33869
:1024D000588AFF1F0093FF1F38B50F4C206878B152
:1024E00043880288C11801339A420D7A02D9438089
:1024F000284638BDFFF7C8FF00232360284638BDB3
:10250000064B1B782BB10320FFF7D0FA2060002880
:10251000E6D14FF0FF35EBE71093FF1F0093FF1F4D
:1025200010B5094C206818B143881844007A10BDD2
:10253000064B1B782BB10320FFF7B8FA2060002868
:10254000F2D14FF0FF3010BD1093FF1F0093FF1F1B
:10255000084B094A1B6810B594881BB11A885B8820
:10256000D31A1C440CB1204610BD00F029F92046B6
:1025700010BD00BF1093FF1F0493FF1F0B4B1B7870
:102580009BB110B50A4C206848B1FFF77DFF0023CE
:1025900003202360FFF78AFA30B1FFF775FF0320AD
:1025A000FFF784FA0028F8D110BD70470093FF1F91
:1025B0001093FF1F2DE9F04FDFF8EC9083B001225C
:1025C00089F80020019179B3384FDFF8E480019D4C
:1025D000384EDFF8E4A083463968A1B3B1F802E0D1
:1025E000CEF1400CAC4528BFAC460EEB0C040022EB
:1025F000A4B23270A5EB0C054C8001F10802BCF1CD
:10260000000F0AD00EF1FF3E7244DC441BF8014B70
:1026100002F8014FDC45F9D14C883F2C0BD805223C
:102620008AF80020002DD7D10198002389F80030C6
:1026300003B0BDE8F08F40220A800420FFF7AEFA15
:1026400000223A60EBE798F800202AB348F60144EC
:1026500008E0013C19D03278BAB900F0B1F898F826
:102660000020CAB10420FFF743FA0728F1D84FF041
:10267000010389F80030FFF7E7FE014638600028C3
:10268000ACD1013C89F80000E5D101234FF0FF30C7
:10269000337003B0BDE8F08F00234FF0FF3089F8AE
:1026A000003003B0BDE8F08F1593FF1F1893FF1F94
:1026B0000093FF1F1493FF1F2C93FF1F00B583B0DF
:1026C000034601210DF107008DF80730FFF772FF77
:1026D00003B05DF804FB00BF38B50E4D0E4C286802
:1026E0000123237028B140880023C0F140002370EB
:1026F00038BD0A4B1B7813B90020207038BD042068
:10270000FFF7F6F90728F7D8FFF79EFE28600028A4
:10271000E9D1F1E71893FF1F1593FF1F0093FF1FE7
:10272000F8B5114B1B788BB1104E114D3468012751
:102730002F7064B10F4B00271F70638823802146E0
:102740000420FFF72BFA376000232B70F8BDFFF74A
:102750007BFE084B014620B104201C70FFF71EFAD7
:10276000F2E71F70F0E700BF0093FF1F1893FF1FF1
:102770001593FF1F2C93FF1F38B50E4B1B7853B9D1
:102780000D4C216841B103F0FF054B880B800420FC
:10279000FFF704FA256038BDFFF756FE014620B169
:1027A000BDE838400420FFF7F9B9044B01221A7044
:1027B00038BD00BF1593FF1F1893FF1F2C93FF1FF9
:1027C0002DE9F843324E337863B1324F3A784AB943
:1027D0000122D9073A7043D49A0726D400225B0716
:1027E0003A7001D4BDE8F8832B4B1A68002AF9D05F
:1027F000EFF30582002AF5D1EFF3108572B6186861
:1028000000283AD0254C2178002936D142691A6037
:1028100001232370002A37D0916105B962B60025E3
:102820008368457798472570DCE7DFF8748098F86F
:102830000020002AD2D00025DFF868902B4659F8F6
:102840002340236820461B690135984708B1236956
:10285000984798F80020EBB29A42F0D83378BDE759
:10286000FFF776FE68B9104B1B780BB93378B3E7E6
:10287000337803F0FE033370AEE7002DB2D162B6B9
:10288000B0E700F0C3F8EEE7084B1A60C5E700BFF9
:102890005C8AFF1F2D93FF1F3093FF1F3C93FF1F88
:1028A0005093FF1F4493FF1F1CB700004093FF1F6E
:1028B00070B5EFF3108272B60C4C206880B10C4EEC
:1028C00000254369236073B19D6102B962B68368D4
:1028D00045779847EFF3108272B620680028F0D150
:1028E00002B962B670BD3360EFE700BF3893FF1FD7
:1028F0003493FF1FFFF7DCBF024A136801331360F4
:10290000704700BF2092FF1F2A4B2B4A6020E12115
:102910001870597013782948082B34D00A2B20D00E
:102920000C2B274B0CBF15213D2112228160C26068
:102930009960DA60234B21491B78214ACBB10123EE
:102940000B621362204B1D491B781D4A012B13D9C2
:10295000042B1BD884234B6253621C4B01221A7038
:102960007047174B192113228160C2609960DA60A9
:10297000E0E70B621362E5E780234B625362134B7F
:1029800001221A7070470E4B0121ECE7082B06D884
:1029900085234B6253620D4B01221A707047102B36
:1029A00094BF862387234B625362084B01221A701F
:1029B000704700BF004007405D8AFF1F00B0034022
:1029C00000B00B405193FF1F5E8AFF1F5293FF1F01
:1029D0000B4A0C49D36A43F48053D3620B784BB152
:1029E000094B802283F82120074B80F30C0000B2B2
:1029F00018807047044BC02283F82120F4E700BF01
:102A0000008004405193FF1F00C00C40704700BF7E
:102A100010B584B072B6174A702441200F2180236C
:102A20001470D0719171137013781B06FCD59068E7
:102A300062B6114B114C984238BF00EB800001A9DF
:102A400038BF40000A22FEF79DFD01A92046002361
:102A500011F8012B01333AB10A2B20F8022FF7D1DC
:102A60001623237004B010BD5B00DBB2237004B0EA
:102A700010BD00BF0000024080969800EC8AFF1F46
:102A800003460846194602F0D3BC00BF174A20F09F
:102A9000004393421ADD00B5B3F1FF4F83B005DB6D
:102AA000014601F041F903B05DF804FB694600F00E
:102AB0005BF900F00302012A0199009809D0022A6B
:102AC0000FD05AB1012200F0D9F8ECE7002100F054
:102AD0000FB800F0D3F800F10040E4E700F008F888
:102AE000E1E700F005F800F10040DCE7D80F493FCE
:102AF0002DE9F84320F00045B5F1485F06468846C9
:102B00004ADA01F0E1FB002800F09F8031463046B0
:102B100001F014FA4F49044601F010FA4E4901F051
:102B200005F9214601F00AFA4C4901F0FDF8214669
:102B300001F004FA4A4901F0F9F8214601F0FEF9E2
:102B4000484901F0F1F8214601F0F8F9464901F051
:102B5000EDF8214601F0F2F907464FF07C5120468E
:102B600001F0ECF93946034620461C4601F0E6F92F
:102B700041460546304601F0E1F90146284601F09C
:102B8000D3F80146204601F0CFF801464FF07E50C1
:102B900001F0CAF8BDE8F883014601F0CFF92D49EC
:102BA000044601F0CBF92C4901F0C0F8214601F0B0
:102BB000C5F92A4901F0B8F8214601F0BFF92849C2
:102BC00001F0B4F8214601F0B9F9264901F0ACF85A
:102BD000214601F0B3F9244901F0A8F8214601F09B
:102BE000ADF9224B9D420746B7DD214B9D4228DCC3
:102BF00005F17F454FF07E50294601F095F881465A
:102C00004FF07C51204601F099F9294601F08CF8EB
:102C10003946034620461C4601F090F941460546D8
:102C2000304601F08BF90146284601F07DF8014657
:102C3000204601F079F80146484601F075F8BDE8F4
:102C4000F883DFF830900C4DDAE74FF07E50BDE8A6
:102C5000F88300BF4ED747ADF6740F317CF2933442
:102C6000010DD037610BB63AABAA2A3D9999993E2E
:102C70000000483F0000383F0000903E2DE9F84337
:102C800020F00043B3F1485F04460E46904603DA55
:102C900001F01AFB002858D02146204601F04EF9D9
:102CA00005460146204601F049F929498146284652
:102CB00001F044F9274901F037F8294601F03EF9BF
:102CC000254901F033F8294601F038F9234901F08C
:102CD0002BF8294601F032F9214901F027F807467F
:102CE000B8F1000F22D04FF07C51304601F026F9A8
:102CF00039468046484601F021F90146404601F038
:102D000013F8294601F01AF9314601F00DF815497A
:102D10000546484601F012F90146284601F006F83A
:102D20000146204601F000F8BDE8F8830146284638
:102D300001F004F90B4900F0F7FF494601F0FEF8F5
:102D4000214600F0F3FFBDE8F8832046BDE8F88394
:102D5000D3C92E2F342FD7321BEF3836010D5039FF
:102D60008988083CABAA2A3E2DE9F04FAB4A20F0F7
:102D70000044944289B00D466CDDA94A944207464E
:102D80001CDC0028A74940F31E8100F0CDFFA64BB4
:102D900024F00F049C4206466BD0A44900F0C4FF07
:102DA00001462860304600F0BFFFA04900F0BCFF9C
:102DB00001266860304609B0BDE8F08F9C4A944215
:102DC0006CDDB4F1FF4F4DDAE615863EA4EBC65438
:102DD000204601F079FA01F05DF8014620460591A0
:102DE00000F0A2FF4FF0874101F0A8F8804601F003
:102DF0006BFA01F04FF8044621464046069400F075
:102E000093FF4FF0874101F099F80021079001F0FE
:102E100029FA002800F0B8800021204601F022FAAB
:102E2000002814BF01230223824A01920222009249
:102E30002946324605A800F00FF9002F0646B9DAF8
:102E4000D5E9002302F1004203F100432A606B60E0
:102E50004642AFE700262860002230464A6009B0AB
:102E6000BDE8F08F014600F05FFF00266860286033
:102E7000A0E7714900F058FF7049044600F054FF84
:102E800001462860204600F04FFF6C4900F04CFFDF
:102E900001266860304609B0BDE8F08F00F0D8F830
:102EA0006749804601F04AF84FF07C5100F03EFF40
:102EB00001F00AFA064600F0EDFF5A49834601F098
:102EC0003DF80146404600F02FFF584982465846DB
:102ED00001F034F81F2E81460146504620DC721E58
:102EE000584B53F8223024F0FF029A4218D000F0D9
:102EF0001BFF8046C5F800804146504600F014FF95
:102F0000494600F011FF002F6860BFF653AF08F18B
:102F1000004800F10040C5F800806860764249E74B
:102F200000F002FFC0F3C753C3EBD453082B804615
:102F30004FEAE452DEDD40490392584600F0FEFFBE
:102F400080460146504600F0EFFE044621465046BA
:102F500000F0EAFE414600F0E7FE38498046584658
:102F600000F0ECFF414600F0DFFE014681462046BE
:102F700000F0DAFE039AC0F3C753D21A192A80462A
:102F800004DC2860A246B7E703234DE72E495846E4
:102F900000F0D4FF01468046204600F0C5FE824680
:102FA0005146204600F0C0FE414600F0BDFE2749D4
:102FB0000446584600F0C2FF214600F0B5FE8146A7
:102FC0000146504693E700F0B1FE174B24F00F0482
:102FD0009C4206460ED0154900F0A8FE0146286026
:102FE000304600F0A1FE114900F0A0FE4FF0FF3680
:102FF0006860DFE6104900F099FE1049044600F0D1
:1030000095FE01462860204600F08EFE0B4900F038
:103010008DFE4FF0FF366860CCE600BFD80F493F09
:10302000E3CB1640800FC93FD00FC93F434435372B
:10303000800F4943F8B700000044353708A3852EB8
:1030400084F9223F78B7000000A3852E32318D2409
:1030500020F00040704700BF2DE9F04FDDB01C4666
:1030600006930991A64B66990B9253F8213003936E
:10307000111D04F1FF3305460193C0F2EC82D31E0B
:1030800048BF131DDB1005930133DB000A93DDE914
:103090000A239B1A0493059A019BD61A039A12EBF2
:1030A000030818D408F10108DDF89C91B04400240D
:1030B00020AF08E059F8260000F0ECFE0136464546
:1030C00047F8040B07D0002EF4DA013620464645B7
:1030D00047F8040BF7D1039B002BC0F21183069B2A
:1030E000019E20AA02EB83079A000092039A291FEF
:1030F00002910DF5907802EB030901EB8305019B2A
:10310000002BB8BF002410DBDDF808A0BB4600246C
:103110005BF8041D5AF8040F00F010FF014620462A
:1031200000F004FEAA450446F2D101364E4548F8A7
:10313000044B07F10407E2D1029B009D039A1D4452
:103140000CAB03EB8203043B07930CAB03EB820352
:10315000089390465CAB03EB8803B8F1000F53F87B
:1031600050AC4FEA880921DD48AF07EB88040CAE6C
:103170004FF06E51504600F0E1FE01F0A5F800F06E
:1031800089FE4FF08741834600F0D8FE0146504645
:1031900000F0CAFD01F098F854F8041D46F8040B3D
:1031A000584600F0C3FDBC428246E1D1049E504621
:1031B000314600F003FB4FF07851044600F0BEFEAC
:1031C00000F0BAFA4FF0824100F0B8FE0146204606
:1031D00000F0AAFD044601F077F8824600F05AFE9E
:1031E0000146204600F0A0FD002E0446314640F383
:1031F000898008F1FF360CAAC1F1080352F8262095
:1032000042FA03F000FA03F3D21AC1F107010CAB42
:1032100042FA01F7002F43F8262082447CDC00218B
:10322000204601F01FF8002800F0D380039B08F12E
:10323000FF34A34208F1804010DC0CABDDF820C065
:103240004FEA880603EB8803002253F8041D634508
:1032500042EA0102F9D1002A40F01181039B0CAA35
:10326000013B52F82330002B40F00581079B0126DB
:1032700053F8042D0136002AFAD008EB0603009318
:1032800008F10107059A02EB0709069A6FF040431F
:1032900099441344679A434402EB890920AA02EB3C
:1032A000830848AB03EB800A59F8040F00F0F2FDE5
:1032B000019B48F8040F002B19DBDDF808B04446E9
:1032C000002601E054F8040D5BF8041F00F036FE00
:1032D0000146304600F02AFDAB450646F2D1009B80
:1032E0004AF8046F01379F42DEDD984632E7009BC3
:1032F000013700269F424AF8046FD5DDF5E700BF8D
:103300003CBB000040F09F8008F1FF330CAA52F84C
:103310002370FF11002F82DDB8F1000F0AF1010ABE
:1033200040F39E810C9E002E40F08580B8F1010F85
:1033300020D00CAB012253F8046F002E7ED0531C1A
:103340000CA9C6F58076984541F8226011DD09F197
:1033500030020DEB02010CAA0CA852F8232000EB5E
:10336000830300E01A68C2F1FF0243F8042B8B428A
:10337000F8D10126049B002B0EDD012B00F06081AB
:10338000022B09D108F1FF320CAB0CA953F8223003
:1033900003F03F0341F82230022F7FF440AF214673
:1033A0004FF07E5000F0C0FC0446002E3FF437AFD3
:1033B00004994FF07E5000F001FA0146204600F0DB
:1033C000B3FC04460021204600F04CFF00287FF4A7
:1033D0002DAFDDE90A322046991A009700F0EEF988
:1033E0004FF08741044600F05BFF002800F0648145
:1033F000049B4FF06E5108332046049300F09EFD6D
:1034000000F062FF00F046FD4FF08741054600F0F6
:1034100095FD0146204600F087FC00F055FF0CABFF
:1034200008F1010443F82800284600F04DFF0CABDA
:1034300043F8240036E00123002281E701324245AF
:103440007FF479AF96E74FF07C5100F029FF0746F3
:1034500000283FF4E4AEB8F1000F0AF1010AC8BF3A
:1034600002273FF75FAF21464FF07E5000F05CFC33
:1034700002270446D3E608F10107009702E7049B00
:103480000097A3F108020CAB049253F824304BB917
:10349000331F0CA90B4453F8041D013C083A0029C2
:1034A000F9D0049204994FF07E5000F087F9002C77
:1034B0000746C0F22B81631C9A0001920CAA02EB12
:1034C000830848AA02934FF06E5602EB830558F822
:1034D000040D00F0DFFC394600F030FD314645F8C0
:1034E000040D384600F02AFD0CAB98450746EED196
:1034F000019BDDF80C90CDF810A0083B48AA02EB28
:1035000003080027A346B9F1000FB8BF002515DB5B
:10351000874C8848C2460025002603E0B7420DDBF1
:1035200054F8040F5AF8041F00F008FD014628461D
:1035300000F0FCFB0136B1450546EFDA5CAB03EB6E
:1035400087035F4543F8A05CA8F104084FEA8706AB
:1035500007F1010301D01F46D5E7669BDDF810A0F7
:10356000022B5C4617DC002B7CDC0FD1019C34ADB8
:103570002C44002054F8041D00F0D8FBA542F9D1DA
:10358000009B0BB100F10040099B18600AF0070096
:103590005DB0BDE8F08F669B032BF7D1002C00F0E7
:1035A000C28034AF07EB060858F804BC28465946D9
:1035B00000F0BCFBA94605462946584600F0B4FB7E
:1035C000494600F0B3FBC8F8000048F8045D4745E1
:1035D000EAD1012C40F3A78006F5B8736B44BD19FE
:1035E00053F8A04C0DF1D40855F804BC20465946B8
:1035F00000F09CFBA14604462146584600F094FB8F
:10360000494600F093FB286045F8044DA845EBD1EE
:10361000341D3C440020083754F8041D00F086FB9C
:10362000A742F9D1009B002B4ED10999349A359BC2
:1036300088600AF007000A604B605DB0BDE8F08F5B
:1036400008F1FF320CAB0CA953F8223003F07F03D2
:1036500041F82230A0E608230A930023059316E5DB
:10366000002687E6029B34AD05EB8306002056F862
:10367000041D00F05BFBB542F9D1009B002B34D157
:10368000099B01461860349800F04EFB002C0CDDBD
:1036900034AE012556F8041F013500F047FBAC425B
:1036A000F8DA009B0BB100F10040099B58600AF06A
:1036B00007005DB0BDE8F08F204600F005FE0CABC2
:1036C000444643F82800EDE6DDE93423099900F18A
:1036D000004002F1004203F1004388600AF0070055
:1036E0000A604B605DB0BDE8F08F099A00F10043BD
:1036F00001461360349800F017FB002CC8DCD2E7B9
:103700002B1F0293069B9B00009315E5669B022BE3
:1037100005DC002B09DC7FF439AF002030E7669B25
:10372000032B7FF433AF00207CE70020A5E700BF28
:1037300010BB00000000C93F2DE9F041C0F3C755A0
:103740007F3D162D044620F0004725DC002D8046E5
:1037500014DB174F2F4138421BD0164900F0E6FA10
:10376000002100F0A7FDA0B1002C03DA4FF4000304
:103770002B41984428EA0700BDE8F0810D4900F08C
:10378000D5FA002100F096FD18B1002C0CDB0020CA
:1037900000E02046BDE8F081B7F1FF4FF9D30146C4
:1037A00000F0C4FABDE8F081002FF2D00248F1E742
:1037B000FFFF7F00CAF24971000080BF10B50C46C0
:1037C00030F0004103461DD0B1F1FF4F1BD210F085
:1037D000FF4F02461BD14FF0984100F0AFFB204A4B
:1037E000944203462CDBC0F3C75102464CF25030E2
:1037F0008442A1F1190110DD1A49184661F31E0037
:1038000000F09CFB10BD014600F090FA10BD4CF298
:10381000503084424FEAD151EEDC2144FE29EBDCEA
:10382000002911DC11F1160F13DB01F1190022F050
:10383000FF424FF04C5142EAC05000F07FFB10BDF8
:10384000094900F07BFB10BD22F0FF4242EAC15063
:1038500010BD0549184661F31E0000F06FFB10BD56
:10386000B03CFFFFCAF249716042A20D81F00041F5
:1038700002E000BF83F0004330B54FEA41044FEA55
:10388000430594EA050F08BF90EA020F1FBF54EAF0
:10389000000C55EA020C7FEA645C7FEA655C00F08C
:1038A000E2804FEA5454D4EB5555B8BF6D420CDD5D
:1038B0002C4480EA020281EA030382EA000083EAE0
:1038C000010180EA020281EA0303362D88BF30BD80
:1038D00011F0004F4FEA01314FF4801C4CEA1131D6
:1038E00002D0404261EB410113F0004F4FEA033335
:1038F0004CEA133302D0524263EB430394EA050FC0
:1039000000F0A780A4F10104D5F1200E0DDB02FA2E
:103910000EFC22FA05F2801841F1000103FA0EF2C2
:10392000801843FA05F359410EE0A5F120050EF188
:10393000200E012A03FA0EFC28BF4CF0020C43FAB9
:1039400005F3C01851EBE37101F0004507D54FF0C6
:10395000000EDCF1000C7EEB00006EEB0101B1F516
:10396000801F1BD3B1F5001F0CD349085FEA30005C
:103970004FEA3C0C04F101044FEA445212F5800F67
:1039800080F09A80BCF1004F08BF5FEA500C50F104
:10399000000041EB045141EA050130BD5FEA4C0CE7
:1039A000404141EB0101013C28BFB1F5801FE9D244
:1039B00091F0000F04BF01460020B1FA81F308BF67
:1039C0002033A3F10B03B3F120020CDA0C3208DD33
:1039D00002F1140CC2F10C0201FA0CF021FA02F10E
:1039E0000CE002F11402D8BFC2F1200C01FA02F17E
:1039F00020FA0CFCDCBF41EA0C019040E41AA2BFA3
:103A000001EB0451294330BD6FEA04041F3C1CDA6A
:103A10000C340EDC04F11404C4F1200220FA04F08A
:103A200001FA02F340EA030021FA04F345EA030134
:103A300030BDC4F10C04C4F1200220FA02F001FAF6
:103A400004F340EA0300294630BD21FA04F0294678
:103A500030BD94F0000F83F4801306BF81F4801111
:103A60000134013D4EE77FEA645C18BF7FEA655C84
:103A700029D094EA050F08BF90EA020F05D054EA56
:103A8000000C04BF1946104630BD91EA030F1EBF5B
:103A90000021002030BD5FEA545C05D1400049415F
:103AA00028BF41F0004130BD14F580043CBF01F552
:103AB000801130BD01F0004545F0FE4141F4700138
:103AC0004FF0000030BD7FEA645C1ABF1946104613
:103AD0007FEA655C1CBF0B46024650EA013406BF14
:103AE00052EA033591EA030F41F4002130BD00BFD3
:103AF00090F0000F04BF0021704730B54FF4806490
:103B000004F132044FF000054FF0000150E700BF10
:103B100090F0000F04BF0021704730B54FF480646F
:103B200004F1320410F0004548BF40424FF000015C
:103B30003EE700BF42004FEAE2014FEA31014FEA9F
:103B400002701FBF12F07F4393F07F4F81F06051EE
:103B5000704732F07F4208BF704793F07F4F04BF39
:103B600041F40021704730B54FF4607401F0004516
:103B700021F000411CE700BF50EA010208BF704776
:103B800030B54FF000050AE050EA010208BF704767
:103B900030B511F0004502D5404261EB41014FF4D0
:103BA000806404F132045FEA915C3FF4D8AE4FF0D8
:103BB00003025FEADC0C18BF03325FEADC0C18BFBB
:103BC000033202EBDC02C2F1200300FA03FC20FA0C
:103BD00002F001FA03FE40EA0E0021FA02F1144459
:103BE000BDE600BF4FF0FF3C06E000BF4FF0010C08
:103BF00002E000BF4FF0010C4DF804CD4FEA410C3C
:103C00007FEA6C5C4FEA430C18BF7FEA6C5C1BD008
:103C100001B050EA410C0CBF52EA430C91EA030F89
:103C200002BF90EA020F0020704710F1000F91EAE6
:103C3000030F58BF994208BF90422CBFD8176FEAB4
:103C4000E37040F0010070474FEA410C7FEA6C5C82
:103C500002D150EA013C07D14FEA430C7FEA6C5C89
:103C6000D6D152EA033CD3D05DF8040B704700BFB5
:103C70008446104662468C461946634600E000BF03
:103C800001B5FFF7B7FF002848BF10F1000F01BDD5
:103C90004DF808EDFFF7F4FF0CBF012000205DF8A0
:103CA00008FB00BF4DF808EDFFF7EAFF34BF012025
:103CB00000205DF808FB00BF4DF808EDFFF7E0FFBE
:103CC00094BF012000205DF808FB00BF4DF808ED0F
:103CD000FFF7CEFF94BF012000205DF808FB00BF76
:103CE0004DF808EDFFF7C4FF34BF012000205DF858
:103CF00008FB00BF4FEA410C7FEA6C5C02D150EA3E
:103D0000013C0AD14FEA430C7FEA6C5C02D152EAD3
:103D1000033C02D14FF0000070474FF001007047A4
:103D200080F0004002E000BF81F0004142001FBF70
:103D30005FEA410392EA030F7FEA226C7FEA236C79
:103D40006AD04FEA1262D2EB1363C1BFD21841406E
:103D500048404140B8BF5B42192B88BF704710F004
:103D6000004F40F4000020F07F4018BF404211F0A7
:103D7000004F41F4000121F07F4118BF494292EA0F
:103D8000030F3FD0A2F1010241FA03FC10EB0C003B
:103D9000C3F1200301FA03F100F0004302D54942C8
:103DA00060EB4000B0F5000F13D3B0F1807F06D375
:103DB00040084FEA310102F10102FE2A51D2B1F16D
:103DC000004F40EBC25008BF20F0010040EA030062
:103DD0007047490040EB0000013A28BFB0F5000FE2
:103DE000EDD2B0FA80FCACF1080CB2EB0C0200FA98
:103DF0000CF0AABF00EBC25052421843BCBFD040E7
:103E00001843704792F0000F81F4000106BF80F460
:103E100000000132013BB5E74FEA41037FEA226C23
:103E200018BF7FEA236C21D092EA030F04D092F0EE
:103E3000000F08BF0846704790EA010F1CBF002022
:103E4000704712F07F4F04D1400028BF40F000407F
:103E5000704712F100723CBF00F50000704700F09F
:103E6000004343F0FE4040F4000070477FEA2262C6
:103E700016BF08467FEA23630146420206BF5FEA97
:103E8000412390EA010F40F4800070474FF0000397
:103E900004E000BF10F0004348BF40425FEA000C5E
:103EA00008BF704743F0964301464FF000001CE006
:103EB00050EA010208BF70474FF000030AE000BF5C
:103EC00050EA010208BF704711F0004302D540429A
:103ED00061EB41015FEA010C02BF8446014600200C
:103EE00043F0B64308BFA3F18053A3F50003BCFA27
:103EF0008CF2083AA3EBC25310DB01FA02FC6344D4
:103F000000FA02FCC2F12002BCF1004F20FA02F2DA
:103F100043EB020008BF20F00100704702F12002CD
:103F200001FA02FCC2F1200250EA4C0021FA02F22E
:103F300043EB020008BF20EADC7070474FF0FF0C33
:103F40001CEAD0521EBF1CEAD15392EA0C0F93EA2E
:103F50000C0F6FD01A4480EA010C400218BF5FEAD0
:103F600041211ED04FF0006343EA501043EA511143
:103F7000A0FB01310CF00040B1F5000F3EBF49003D
:103F800041EAD3715B0040EA010062F17F02FD2A41
:103F90001DD8B3F1004F40EBC25008BF20F0010024
:103FA000704790F0000F0CF0004C08BF49024CEA3B
:103FB000502040EA51207F3AC2BFD2F1FF0340EACD
:103FC000C250704740F400004FF00003013A5DDC3E
:103FD00012F1190FDCBF00F000407047C2F100027F
:103FE000410021FA02F1C2F1200200FA02FC5FEA6C
:103FF000310040F1000053EA4C0308BF20EADC70B6
:10400000704792F0000F00F0004C02BF400010F427
:10401000000F013AF9D040EA0C0093F0000F01F0D4
:10402000004C02BF490011F4000F013BF9D041EAF6
:104030000C018FE70CEAD15392EA0C0F18BF93EAF8
:104040000C0F0AD030F0004C18BF31F0004CD8D122
:1040500080EA010000F00040704790F0000F17BFA9
:1040600090F0004F084691F0000F91F0004F14D0EF
:1040700092EA0C0F01D142020FD193EA0C0F03D147
:104080004B0218BF084608D180EA010000F000404A
:1040900040F0FE4040F40000704740F0FE4040F425
:1040A000400070474FF0FF0C1CEAD0521EBF1CEAC4
:1040B000D15392EA0C0F93EA0C0F69D0A2EB0302E2
:1040C00080EA010C49024FEA402037D04FF080537C
:1040D00043EA111143EA10130CF000408B4238BF41
:1040E0005B0042F17D024FF4000C8B4224BF5B1A4F
:1040F00040EA0C00B3EB510F24BFA3EB510340EA9D
:104100005C00B3EB910F24BFA3EB910340EA9C004A
:10411000B3EBD10F24BFA3EBD10340EADC001B01BA
:1041200018BF5FEA1C1CE0D1FD2A3FF650AF8B425E
:1041300040EBC25008BF20F0010070470CF0004C6B
:104140004CEA50207F32C2BFD2F1FF0340EAC25096
:10415000704740F400004FF00003013A37E792F057
:10416000000F00F0004C02BF400010F4000F013AB5
:10417000F9D040EA0C0093F0000F01F0004C02BFB0
:10418000490011F4000F013BF9D041EA0C0195E719
:104190000CEAD15392EA0C0F08D142027FF47DAFB2
:1041A00093EA0C0F7FF470AF084676E793EA0C0FA2
:1041B00004D14B023FF44CAF08466EE730F0004CA0
:1041C00018BF31F0004CCAD130F000427FF45CAF30
:1041D00031F000437FF43CAF5FE700BF4FF0FF3C9E
:1041E00006E000BF4FF0010C02E000BF4FF0010CF1
:1041F0004DF804CD4FEA40024FEA41037FEA226CBA
:1042000018BF7FEA236C11D001B052EA530C18BFDB
:1042100090EA010F58BFB2EB030088BFC81738BF40
:104220006FEAE17018BF40F0010070477FEA226C2E
:1042300002D15FEA402C05D17FEA236CE4D15FEA2A
:10424000412CE1D05DF8040B704700BF844608465E
:104250006146FFE70FB5FFF7C9FF002848BF10F11F
:10426000000F0FBD4DF808EDFFF7F4FF0CBF012064
:1042700000205DF808FB00BF4DF808EDFFF7EAFFEE
:1042800034BF012000205DF808FB00BF4DF808EDA9
:10429000FFF7E0FF94BF012000205DF808FB00BF9E
:1042A0004DF808EDFFF7D2FF94BF012000205DF824
:1042B00008FB00BF4DF808EDFFF7C8FF34BF012031
:1042C00000205DF808FB00BF4FEA4002B2F1FE4F4C
:1042D0000FD34FF09E03B3EB12620DD94FEA0023C8
:1042E00043F0004310F0004F23FA02F018BF4042A1
:1042F00070474FF00000704712F1610F01D1420288
:1043000005D110F0004008BF6FF0004070474FF03B
:104310000000704742000ED2B2F1FE4F0BD34FF0B7
:104320009E03B3EB126209D44FEA002343F000432B
:1043300023FA02F070474FF00000704712F1610F4E
:1043400001D1420202D14FF0FF3070474FF0000020
:10435000704700BF0A22002100F064BD024B0146F5
:10436000186800F00BB800BFB091FF1F024B014668
:10437000186801F037BA00BFB091FF1F2DE9F04F68
:1043800001F10B06162E83B0044624D8102900F242
:10439000BA8000F0A3FA102618220220B54F3A4442
:1043A000A2F1080153688B4200F0BA805A68D968BC
:1043B00022F003021A449D68E9608D60516841F063
:1043C00001012046516003F1080500F08DFA2846EE
:1043D00003B0BDE8F08F36F0070600F19480B142DB
:1043E00000F2918000F07AFAB6F5FC7FC0F09A8175
:1043F000730A00F08F80042B00F26F81B30903F180
:10440000390003F1380CC3009A4F3B44A3F108056F
:104410005B689D4206D10CE0002980F22781DB68B1
:104420009D4206D05A6822F00302911B0F29F3DD4A
:1044300060463D69DFF840C265457CD06A6822F07D
:104440000302931B0F2B00F37B81002BC7E904CCE5
:1044500080F26C81B2F5007F80F01A81D308796810
:1044600001334FEA521E012202FA0EF20A4357F8B4
:1044700033E0C5F808E007EBC3010839E9607A606A
:1044800047F83350CEF80C508310012199409142E7
:1044900057D8114206D120F003004900114200F123
:1044A0000400FAD007EBC0094D468646D5F80C80CB
:1044B000454508D11DE1002B80F22481D8F80C80FD
:1044C000454500F01681D8F8042022F00302931B22
:1044D0000F2BF0DD2046D8E9025408EB060146F028
:1044E0000106C8F80460EC60A56043F00104C7E968
:1044F0000411C1E902CC4C6048F8023000F0F4F934
:1045000008F1080502E00C2323600025284603B0CB
:10451000BDE8F08F4FF4007340204FF03F0C73E77D
:10452000D3689A4208BF02307FF440AF3D69DFF89C
:1045300048C1654582D17A68831001219940914232
:10454000A7D9BD686B6823F003094E4503D8A9EBD2
:1045500006030F2B7ADCDFF824B1494BDBF800208F
:104560001B680132334405EB090A00F0338103F57F
:1045700080530F3323F47F6828F00F08414620460C
:1045800000F05CFF411C024600F0F380824500F21F
:10459000EE803C4B196841441960084600F04E819A
:1045A000DBF80010019301311BBFA2EB0A010918CF
:1045B000CBF80020196012F0070B00F01781CBF147
:1045C00008010A44CBF5805190440831A1EB080161
:1045D000C1F30B0A51462046009200F02FFF421C07
:1045E000DDE9002300F04F81801A00EB0A0819680A
:1045F000BA6048F001005144BD425060196000F0BB
:104600002981B9F10F0F40F227816868A9F10C0CDC
:104610002CF0070C00F0010040EA0C0068604FF03D
:10462000050E05EB0C00BCF10F0FC0E901EE00F226
:10463000328150681546144B1A688A4238BF196097
:10464000124B1A688A4238BF196094E0AA1943F0E5
:10465000010346F001066E602046BA60536000F028
:1046600043F90835284603B0BDE8F08FD9681A44ED
:10467000A1E600BF048BFF1F0C8BFF1F0C8FFF1FD9
:104680008493FF1F5493FF1F7C93FF1F8093FF1F92
:10469000B2F5206F4FEA522363D3142B00F2B78098
:1046A00003F15C01C9005B3307EB010E7958AEF1F1
:1046B000080E8E4500F091804B6823F0030393426F
:1046C00002D989688E45F7D1D1F80CE07A68C5E93E
:1046D000021ECEF80850CD60D6E6142B59D9542BC3
:1046E00000F29D80330B03F16F0003F16E0CC300E9
:1046F0008AE60EF1010E1EF0030F05F108057FF4A6
:10470000D5AE51E0424445465368D8F80C1043F00A
:104710000103536055F8083F2046D9608B6000F0D4
:10472000E3F8F3E6F00806F1080237E62A442046EB
:10473000536843F001035360083500F0D5F8E5E60F
:10474000A919204646F0010643F001046E60C7E94E
:104750000411C1E902CC4C60AB5000F0C5F808353B
:10476000D4E6930903F13901C90038339CE7BD420F
:104770005FD0BD68686820F003084645A8EB0603D3
:1047800002D80F2B3FF762AF204600F0ADF80025AE
:10479000BCE603F15C0003F15B0CC30034E659F89E
:1047A00008394B4540F0968010F0030F00F1FF30C0
:1047B000F5D17B6823EA01037B60490099423FF60B
:1047C000C0AE19B9BDE649000EF1040E1942FAD087
:1047D000704667E603F11008D0E69A104FF0010822
:1047E0007B6808FA02F21A437A6070E702EB08016C
:1047F0004942C1F30B0A51462046009200F01EFECA
:10480000431CDDE900237FF4EFAEDA46EFE6542BDC
:1048100025D8130B03F16F01C9006E3344E7B3F5DC
:10482000AA7F25D8F30B03F1780003F1770CC300BE
:10483000EAE5294B186840441860B1E6CAF30B0C4E
:10484000BCF1000F7FF4ACAEBD68C84448F0010075
:104850006860F0E61546EEE60123536094E7B3F591
:10486000AA7F23D8D30B03F17801C90077331BE764
:1048700040F25452934223D8B30C03F17D0003F16C
:104880007C0CC300C0E5ABF1080BD844A8EB0208D0
:104890004FF0000AABE605F108012046009300F056
:1048A000A1FFBD68009B68681968C4E640F25451D6
:1048B0008B420BD8930C03F17D01C9007C33F3E6E6
:1048C0004FF47E737F204FF07E0C9DE54FF47E7198
:1048D0007E23E9E67B6870E75493FF1F014800F0F0
:1048E00061BE00BFC894FF1F014800F05DBE00BF5D
:1048F000C894FF1F10B4044C03460A46206810BC3D
:10490000194600F003B800BFB091FF1F2DE9F84F22
:104910001746002900F098800C4607F10B058046E9
:10492000FFF7DCFF162D54F8041C5BD810252A462F
:10493000AF425CD821F003069642A4F1080962DA7E
:10494000BC4BD3F808C009EB0600844500F0978003
:10495000D0F804C02CF0010303445B68DB0768D483
:104960002CF0030C06EB0C03934247DACB0710D470
:1049700054F8083CA9EB030ADAF8043023F00301E9
:104980008C44B444944580F211817318934280F2B0
:10499000E88039464046FFF7F1FC0746E0B154F89D
:1049A000043C23F001034B44A0F10802934200F0C1
:1049B000D280321F242A00F2F580132A00F2AC8044
:1049C00003462246116819605168596092689A60DE
:1049D0002146404600F006FF4046FFF785FF384677
:1049E000BDE8F88F25F00705002D2A46A0DA0C2334
:1049F000C8F8003000273846BDE8F88F1E46D0E9D9
:104A00000223D3609A60731B0F2B22D8D9F804308D
:104A100003F0010333434E44C9F80430736843F094
:104A20000103736040462746FFF75EFF3846BDE846
:104A3000F88FC907ADD454F8083CA9EB030ADAF89B
:104A4000041021F00301A0E7BDE8F84F1146FFF77D
:104A500095BCD9F8042009EB050102F001024E448F
:104A600043F001032A43C9F804204B60736843F004
:104A7000010308317360404600F0B4FED2E7DCF871
:104A8000040020F0030B06EB0B0C05F1100084452D
:104A90004DDAC9073FF57DAF54F8081CA9EB010AB0
:104AA000DAF8041021F003018B44B34458453FF772
:104AB0006CAF5746DAF80C1057F8080F321F242A4B
:104AC000C160886000F2DB80132A40F2D680216842
:104AD000CAF808106168CAF80C101B2A00F2DF80BF
:104AE00008340AF110022168116061685160A16800
:104AF00091600AEB0501ABEB050242F001029960FF
:104B00004A60DAF8043003F001032B434046CAF848
:104B10000430FFF7E9FE6EE72368036063684360D3
:104B20001B2A68D804F1080200F108034AE709EBE0
:104B300005029A60ACEB050343F00103536054F89F
:104B4000043C03F001032B43404644F8043CFFF7C8
:104B5000CBFE27464FE750F8043C23F003031E44E6
:104B600051E75746DAF80C1057F8080F321F242A7D
:104B7000C16088604CD8132A48D92168CAF8081047
:104B80006168CAF80C101B2A56D808340AF11002C2
:104B90001E462368136063685360A3689360D14620
:104BA0003C4630E7214600F05FFA11E7D0E90213F6
:104BB0005746CB60996057F8081FDAF80C30CB6085
:104BC000321F242A99602DD8132A29D92368CAF8BC
:104BD00008306368CAF80C301B2A42D808340AF13E
:104BE000100322681A6062685A60A2689A6066467A
:104BF000D1463C4607E7A3688360E368C360242A84
:104C000026D004F1100200F11003DBE63A46BFE7BC
:104C1000214638461E46D14600F026FA3C46F2E6CA
:104C20003B46DEE7214638466646D14600F01CFA90
:104C30003C46E8E6048BFF1FA168CAF81010E16843
:104C4000CAF81410242A20D010340AF118029FE761
:104C5000236903616169416104F1180200F11803DD
:104C6000B0E6A368CAF81030E368CAF81430242A02
:104C700021D010340AF11803B3E73A4633E721464E
:104C8000384600F0F1F9164B33E72269CAF81820CC
:104C90006269CAF81C2018340AF1200278E7A1687A
:104CA000CAF81010E168CAF81410242A0DD0103484
:104CB0000AF1180217E72369CAF818306369CAF8BD
:104CC0001C3018340AF120038BE72269CAF8182037
:104CD0006269CAF81C2018340AF1200203E700BFF9
:104CE000048BFF1F012B2DE9F84F41D0242B1F46C9
:104CF0003ED880464A488E4675461EF801BB10F8DD
:104D00000B4014F00804F7D1BBF12D0F71D0BBF1AB
:104D10002B0F08BF9EF800B06FF0004908BF05F1E7
:104D2000020E002B42D0102B55D0B9FBF7F6002510
:104D3000284607FB169A05E033D007FB00C0012583
:104D40001EF801BBABF1300CBCF1090F06D9ABF179
:104D5000410CBCF1190F12D8ABF1370C634517DDCC
:104D6000B5F1FF3FECD08642E6D24FF0FF35E7E7E2
:104D700000F08CFB162303600020BDE8F88FABF138
:104D8000610CBCF1190F03D8ABF1570C6345E7DC9C
:104D90006B1C25D084B9002AEFD095BB1160BDE80B
:104DA000F88FE245C9DA4FF0FF35C9E7BBF1300FA4
:104DB00004D00A273B46B8E74042ECE79EF80030B3
:104DC00003F0DF03582B20D110279EF801B03B469B
:104DD0000EF1020EA9E7BBF1300F19D01F46A4E770
:104DE0002223C8F8003072B10EF1FF31484611603D
:104DF000D5E79EF800B04FF0004905F1020E0124FE
:104E00008FE78146F0E74846B7E708273B468CE73F
:104E10009EF8000000F0DF005828D5D01F4684E738
:104E200091BB000010B4044C84461346206810BCAB
:104E30000A466146FFF756BFB091FF1F024A034979
:104E4000034800F0EDB800BF148FFF1F1D7D000068
:104E50009090FF1F0C4B4168994210B5044601D059
:104E600002F05CFFA168094B994202D0204602F093
:104E700055FFE168064B994204D02046BDE810403A
:104E800002F04CBF10BD00BF8893FF1FF093FF1FBF
:104E90005894FF1F2DE9F8432A4C2B4B2B48DFF881
:104EA000B090DFF8B0802C4F186000250423082252
:104EB000294604F15C00294E6566C4E90253C4E941
:104EC0000055C4E90455A56100F04AF9244B636715
:104ED0000822294604F1C400C4E90749C4E9098746
:104EE000C4E91A55C4E91E55C4F8CC502567C4F866
:104EF0008050E66200F034F91A4BC4F8DC302946E1
:104F000004F16803082204F59670C4F88430C4E9FB
:104F10002298C4E92476C4E93455C4E93855C4F864
:104F20003451C4F8D850C4F8E85000F019F904F12D
:104F3000D003C4E93C98C4E93E76C4F8EC30BDE83F
:104F4000F88300BF8893FF1FC094FF1F3D4E0000F1
:104F5000597F00007D7F0000BD7F0000DD7F0000E5
:104F6000090001001200020010B504460A4800F0D2
:104F700019FB636B23B9094B094A1B68626323B1B0
:104F8000BDE81040044800F00FBBFFF783FFBDE809
:104F90001040014800F008BBCC94FF1FC094FF1FD5
:104FA000554E0000014800F0FDBA00BFCC94FF1F31
:104FB000014800F0F9BA00BFCC94FF1FF0B5ADF581
:104FC000057D04AF009313464FF400720E46039222
:104FD000394603AA054600F0F3F988B104460246B3
:104FE000039B3146284600F03BFABC42039004D0B4
:104FF0002846214600F0F6FB03980DF5057DF0BD2F
:105000004FF0FF30F9E700BF10B4044C844613465C
:10501000206810BC0A466146FFF7D0BFB091FF1F61
:105020002DE9F84380460F4616464FF00009D6E9B1
:105030000154013D11D4A389012B05F1FF3508D995
:10504000B4F90E300133214603D04046B84749EA4F
:1050500000096B1C04F16804EDD13668002EE6D11E
:105060004846BDE8F88300BF88420DD98B188342BB
:105070000AD900EB020CBAB1624613F801CD02F86E
:1050800001CD9942F9D170470F2A0ED8034602F19B
:10509000FF3C4AB10CF1010C013B8C4411F8012B8F
:1050A00003F8012F6145F9D1704740EA01039B07DE
:1050B00050D1A2F1100370B501F1200C23F00F05BF
:1050C00001F1100E00F11004AC441B095EF8105CF5
:1050D00044F8105C5EF80C5C44F80C5C5EF8085C0C
:1050E00044F8085C5EF8045C44F8045C0EF1100EB1
:1050F000E64504F11004E9D1013312F00C0F01EB85
:10510000031102F00F0400EB031327D0043C24F03A
:1051100003064FEA940C1E441C1F8E465EF8045B87
:1051200044F8045FB442F9D10CF1010402F0030227
:1051300003EB840301EB840102F1FF3C4AB10CF163
:10514000010C013B8C4411F8012B03F8012F614540
:10515000F9D170BD02F1FF3C03469BE72246EBE725
:10516000830730B548D0541E002A3FD0CAB2034648
:1051700001E0013C3AD303F8012B9D07F9D1032C40
:105180002DD9CDB245EA05250F2C45EA054536D97E
:10519000A4F1100222F00F0C03F1200EE6444FEAB6
:1051A000121C03F1100242E9045542E90255103283
:1051B0007245F8D10CF1010214F00C0F03EB02124E
:1051C00004F00F0C13D0ACF1040323F003030433F9
:1051D000134442F8045B9342FBD10CF003042CB15E
:1051E000C9B21C4403F8011B9C42FBD130BD64468C
:1051F0001346002CF4D1F9E703461446BFE71A46DC
:10520000A446E0E711F0FF01034644D0820732D103
:1052100010B5046841EA012E4EEA0E4E8EEA0402F1
:10522000A2F1013323EA0203A4F1013222EA0402CB
:10523000134313F0803F0FD150F8044F84EA0E0C53
:10524000A4F10133ACF1013223EA040322EA0C0297
:10525000134313F0803FEFD0037823B936E010F802
:10526000013F002B32D09942F9D110BD8A4211D0B2
:105270009A071846CCD0184613F8012B002AF5D10E
:10528000104670479907184607D018460133027830
:10529000002AF7D170478207F7D10268A2F10133E3
:1052A00023EA020313F0803F08D150F8042FA2F143
:1052B000013323EA020313F0803FF6D00378002B7A
:1052C000E8D010F8013F002BFBD17047184610BD05
:1052D000002A3ED040EA01039B0730B584462FD117
:1052E000032A2DD90B4608E0043A8446194625D0F6
:1052F0001EF0803F22D1032A22D90468194653F8B0
:10530000045BA4F1013EAC4284462EEA040E00F197
:105310000400E9D09CF800000C78A0421BD1E646BE
:1053200068B11EF8010F11F8014FA2EB0E03A04265
:1053300003F1FF330FD11CEB0303F1D1002030BD8B
:105340009CF800000C78844205D1012AF6D0E6468C
:10535000E6E710467047001B30BD00BF40EA01037E
:105360009B0730B501D1032A0FD8844601F1FF3ED7
:1053700007E01EF8011F03F8011B541EC1B19C4633
:1053800022466346002AF4D130BD0B4684461946B6
:1053900053F8045BA5F1013424EA050414F0803FBE
:1053A000E4D1043A032A4CF8045B1946EFD8DDE750
:1053B0009444002CE8D003F8011B6345FBD130BDB9
:1053C00030B5146815469BB01A4609B1002C19D1A6
:1053D00000214FF42273ADF80C30009104914FF688
:1053E000FF7302910591ADF80E3069461E9B00F0E7
:1053F00015FB002813DB009B286000221A7004981C
:105400001BB030BD4FF4C16300910491ADF80C3076
:105410002146E4DA8B23036000201BB030BD00205E
:10542000EEE700BF014B93F828017047208FFF1F64
:1054300013460A460146022000F030B938B5074D40
:105440000022044608462A60FCF768F8431C00D096
:1054500038BD2B68002BFBD0236038BD6496FF1F3E
:1054600038B50C46084D8446114620461A4600239E
:105470002B606446FBF7DEFD431C00D038BD2B6873
:10548000002BFBD0236038BD6496FF1F014B1868CA
:10549000704700BFB091FF1F80EA0102844612F0FE
:1054A000030F4FD111F0030F32D14DF8044D11F01D
:1054B000040F51F8043B0BD0A3F101329A4312F0D0
:1054C000803F04BF4CF8043B51F8043B16D100BFA9
:1054D00051F8044BA3F101329A4312F0803FA4F13A
:1054E00001320BD14CF8043BA24312F0803F04BFC1
:1054F00051F8043B4CF8044BEAD023460CF8013B2E
:1055000013F0FF0F4FEA3323F8D15DF8044B7047D7
:1055100011F0010F06D011F8012B0CF8012B002A15
:1055200008BF704711F0020FBFD031F8022B12F004
:10553000FF0F16BF2CF8022B8CF8002012F47F4FBF
:10554000B3D1704711F8012B0CF8012B002AF9D1C7
:10555000704700BF70B50D4E0D4D761BB61006D0CE
:10556000002455F8043B01349847A642F9D1094E6E
:10557000094D761B06F0E4FCB61006D0002455F861
:10558000043B01349847A642F9D170BD4CBF0000DE
:105590004CBF000054BF00004CBF0000704700BF6C
:1055A000704700BF704700BF704700BFFFFFFFFF9D
:1055B000FFFFFFFFFFFFFFFFFFFFFFFFFFFFFFFFFB
:1055C00090F800F06DE9024520F007016FF0000C43
:1055D00010F0070491F820F040F049804FF00004EB
:1055E0006FF00700D1E9002391F840F000F10800C6
:1055F00082FA4CF2A4FA8CF283FA4CF3A2FA8CF3FE
:105600004BBBD1E9022382FA4CF200F10800A4FA64
:105610008CF283FA4CF3A2FA8CF3E3B9D1E90423B8
:1056200082FA4CF200F10800A4FA8CF283FA4CF3EF
:10563000A2FA8CF37BB9D1E9062301F1200182FAA9
:105640004CF200F10800A4FA8CF283FA4CF3A2FAAF
:105650008CF3002BC6D0002A04BF04301A4612BABD
:10566000B2FA82F2FDE8024500EBD2007047D1E9C0
:10567000002304F00305C4F100004FEAC50514F04F
:10568000040F91F840F00CFA05F562EA05021CBF20
:1056900063EA050362464FF00004A9E72DE9F047ED
:1056A000DFF874A00646DAF8000098460F469146E7
:1056B000FFF778FF194B1C6824B365681F2D24DCA5
:1056C0005EB96B1C0235DAF80000636044F825709F
:1056D000FFF76AFF0020BDE8F08704EB8501012396
:1056E000C1F88890D4F88821AB401A43022EC4F840
:1056F0008821C1F80881E4D1D4F88C211A43C4F878
:105700008C21DEE7064C1C60D7E7DAF80000FFF7D3
:105710004BFF4FF0FF30DEE7B491FF1F6096FF1F95
:10572000D094FF1F024B13B1024800F005B8704738
:105730000000000085800000002301461A4618463C
:10574000FFF7ACBFF8B5244F0C460646FFF7C6F886
:10575000BB685D68C4F57E610F3125F003054B1908
:1057600023F47F6323F00F03A3F58054B4F5805F27
:1057700007DB00213046FFF761FEBB682B449842EF
:1057800004D03046FFF7B0F80020F8BD6142304643
:10579000FFF754FE01300DD0104ABB682D1B45F0B9
:1057A00001055D60136830461B1B1360FFF79CF812
:1057B0000120F8BD00213046FFF740FEBA68831A89
:1057C0000F2BDEDD43F001035360054B03491B68DB
:1057D000C01A0860D5E700BF048BFF1F5493FF1F5A
:1057E0000C8FFF1F002961D0F8B50C460646FFF765
:1057F00075F854F8042C7B4FA4F1080522F0010140
:1058000005EB010CB868DCF80430604523F00303B5
:1058100000F08B80D207CCF8043032D454F8082C36
:10582000AD1A1144AA6807F1080082426AD00CEB55
:105830000304D4F804E0EC68D4601EF0010FA26009
:1058400000F0978041F001036B60CCF80010B1F5D7
:10585000007F35D27868CB080122490901338A409C
:10586000024357F833107A6007EBC302083AC5E9E0
:10587000021247F83350CD603046BDE8F840FFF7DC
:1058800033B80CEB03025268D00710D4194407F167
:105890000800DCF80830834273D0DCF80C20DA60B2
:1058A000936041F001036B606950D0E7704741F0AD
:1058B0000103B1F5007F44F8043CCCF80010C9D3D3
:1058C000B1F5206F4FEA512348D28B0903F139001B
:1058D00003F13802C300F818FB580838984259D031
:1058E0005A6822F003028A4202D99B689842F7D193
:1058F000D868C5E902308560DD603046BDE8F84013
:10590000FEF7F2BF0CEB03025268D20763D40B44DC
:10591000DCE90212CA60916043F001026A6030461D
:10592000EB50BDE8F840FEF7DFBF0B44D10707D4CA
:1059300054F8082CAD1A1344D5E90212CA609160DC
:1059400043F001026A60284ABD6012689A4293D807
:10595000264B30461968FFF7F5FE8DE7142B0AD960
:10596000542B1FD80B0B03F16F0003F16E02C30021
:10597000B1E719448DE703F15C0003F15B02C3005A
:10598000A9E741F00103C7E90455C5E902006B60CE
:10599000695071E779689210012404FA02F20A430F
:1059A0007A60A6E7B3F5AA7F06D8CB0B03F178009F
:1059B00003F17702C3008EE740F25452934206D8B7
:1059C0008B0C03F17D0003F17C02C30083E74FF4ED
:1059D0007E737E227FE741F001036B60CCF80010FC
:1059E0004AE700BF048BFF1F108FFF1F8493FF1F28
:1059F00082B049B15AB16BB113780B601278101EA6
:105A000018BF012002B0704701A9002AF3D1104647
:105A100002B070476FF00100F4E700BF2DE9F04FCE
:105A2000D9B00C460C9190460E93824602F0E8FAEB
:105A3000036819931846FFF7C3FD08221790002149
:105A400028A8FFF78DFBA3891F0603D52369002B28
:105A500000F03F8700232FAA0024CDE92D33CDE9A4
:105A60001A33CDE91C331393189309930023CDE91E
:105A700014342C9291464446A046784BD3F8E45017
:105A8000FFF7D0FC034628A80090424624A95046C0
:105A9000A847002800F0B080C0F2A680249A252AEA
:105AA000034601D09844E8E7B8EB0407064640F007
:105AB000A78000234FF0FF328DF887309B460B9371
:105AC00008F1010898F8003008922B25202608F1EB
:105AD0000108A3F120025A2A00F2C280DFE812F086
