:1000000000800020BD010000390F0000F50E000047
:10001000F50E0000F50E0000F50E0000F50E0000D4
:10002000F50E0000F50E0000F50E0000390F00007F
:10003000390F0000F50E000071220000752200004B
:10004000390F0000390F0000390F0000390F000090
:10005000390F0000390F0000390F0000390F000080
:10006000390F0000390F0000390F0000390F000070
:10007000390F0000390F0000390F0000390F000060
:10008000390F0000390F0000390F0000390F000050
:10009000390F0000390F0000390F0000390F000040
:1000A000390F0000390F0000390F0000390F000030
:1000B000390F0000390F0000390F0000390F000020
:1000C000390F0000390F0000390F0000390F000010
:1000D000390F0000390F0000390F0000390F000000
:1000E000390F0000390F0000390F0000390F0000F0
:1000F000390F0000390F0000390F0000390F0000E0
:10010000390F0000390F0000390F0000390F0000CF
:10011000390F0000390F0000390F0000390F0000BF
:10012000390F0000390F0000390F0000390F0000AF
:10013000390F0000390F0000390F0000390F00009F
:10014000390F0000390F0000390F0000390F00008F
:10015000390F0000390F0000390F0000390F00007F
:10016000390F0000A1150000390F0000390F000001
:10017000390F0000390F0000390F0000390F00005F
:10018000390F0000390F0000390F0000390F00004F
:10019000390F0000390F0000390F0000390F00003F
:1001A000390F0000390F0000390F0000390F00002F
:1001B000390F0000390F0000390F0000574B4CF287
:1001C000205210B5DA814DF62812DA8100BF00BF47
:1001D00000F0B6FE524B4FF010621A63514A9A6318
:1001E000514ADA63514A136913F4807303D153619E
:1001F0004FF4A85313614E4B9A78110703D59A78A0
:1002000042F008029A704B4B4B482A221A704B4B13
:10021000DA1C121AC11E22F00302994288BF002282
:10022000474900F093FD474B4748DA1C121AC11E9C
:1002300022F00302994288BF0022002103F038FD1A
:10024000424943484FF4DE7200F080FD414B424A80
:10025000802103F8011B9342FBD14FF0E0233C4A7D
:10026000C3F8082D3D4B8A221A70A3F5805324222F
:100270005A70A0221A709A799207FCD59A79D406FE
:10028000FCD4374B9A7902F00C02082AFAD10522E5
:100290001A7143225A719A799006FCD5304A9379A3
:1002A0005906FCD51E4B4FF08171596405219964A4
:1002B00020211170917901F00C010C29FAD1294A01
:1002C0005A604FF0E023284A5A6100229A610722BF
:1002D0001A61264AC3F8202D62B600F0C9FE134BFE
:1002E0005B69DA0705D5224800F0B6FE214B224AA9
:1002F000DA61224B1B785B0609D51E4C1E4BE26966
:100300009A4204D11A4800F0A7FE0023E36100F0EE
:100310001DFE03F0C7FE00F011FDFEE700200540C2
:1003200000800440823F04000100002B00D0034005
:1003300000D0074000E007402087FF1F908FFF1F7D
:1003400070A500003494FF1F908FFF1F0000000075
:100350000082FF1F00E400E05FE400E00050064080
:1003600000400640C01005003F1901000000202099
:100370001AA6E66700E00340A5C3945A00F00740C0
:10038000FFFFFFFFFFFFFFFFFFFFFFFFFFFFFFFF7D
:10039000FFFFFFFFFFFFFFFFFFFFFFFFFFFFFFFF6D
:1003A000FFFFFFFFFFFFFFFFFFFFFFFFFFFFFFFF5D
:1003B000FFFFFFFFFFFFFFFFFFFFFFFFFFFFFFFF4D
:1003C000FFFFFFFFFFFFFFFFFFFFFFFFFFFFFFFF3D
:1003D000FFFFFFFFFFFFFFFFFFFFFFFFFFFFFFFF2D
:1003E000FFFFFFFFFFFFFFFFFFFFFFFFFFFFFFFF1D
:1003F000FFFFFFFFFFFFFFFFFFFFFFFFFFFFFFFF0D
:10040000FFFFFFFFFFFFFFFFFFFFFFFFDEF9FFFF23
:100410000548064B1B1AD90F01EBA301491002D066
:10042000034B03B118477047908FFF1F908FFF1F3A
:100430000000000008B5054B1BB105490548AFF3A6
:100440000080BDE80840FFF7E3BF00BF00000000E8
:10045000908FFF1F68A5000010B5134C1348212191
:1004600001F066FD204600F0F1FA1F21104801F06E
:100470005FFD204600F0EAFA20210E4801F058FD09
:10048000204600F0E3FA14210B4801F051FD20460C
:1004900000F0DCFA0948212101F04AFD2046BDE8C0
:1004A000104000F0D3BA00BF2488FF1FD49B000087
:1004B000F89B0000189C00003C9C0000549C00002D
:1004C00010B52F4C2F481E2101F032FD204600F0C0
:1004D000BDFA13212C4801F02BFD204600F0B6FA9E
:1004E0002C212A4801F024FD204600F0AFFA2E21ED
:1004F000274801F01DFD204600F0A8FA19212548E3
:1005000001F016FD204600F0A1FA1921224801F061
:100510000FFD204600F09AFA1D21204801F008FD49
:10052000204600F093FA21211D4801F001FD2046EC
:1005300000F08CFA1C211B4801F0FAFC204600F068
:1005400085FA3821184801F0F3FC204600F07EFAC5
:100550004721164801F0ECFC204600F077FA2E21E6
:10056000134801F0E5FC204600F070FA11481D2107
:1005700001F0DEFC2046BDE8104000F067BA00BF85
:100580002488FF1F789C0000989C0000AC9C000011
:10059000DC9C00000C9D0000289D0000449D000094
:1005A000649D0000889D0000A89D0000E49D00005F
:1005B0002C9E0000589C00002DE9F0432B4D2C4848
:1005C0002B682C4EDFF8B0802C4F83B01F21012404
:1005D0009C4001F0ADFC294800F038FA284A29492E
:1005E000264800F04BFA284A2849244800F046FAE9
:1005F0002A6827492148274D00F040FA264B274911
:100600001A681E48013C00F039FA224624491B486A
:10061000244C00F033FA1D21234801F089FC1748CF
:1006200000F014FA1C21214801F082FC134800F06C
:100630000DFA04F130096420032203E056F8042F78
:1006400055F8040F54F8043B00904146384600F03A
:1006500015FA4C45F2D11D21154801F069FC0748F7
:1006600003B0BDE8F04300F0F1B900BF1888FF1FE8
:100670005C9E0000909F0000189F00002488FF1FD0
:1006800000A24A047C9E000000512502909E0000BA
:10069000A49E0000609F00001488FF1FB89E000009
:1006A000D89E0000BC8FFF1FF89E0000889D0000B0
:1006B000589C0000F8B50E4B0E481B680E4F0F4DAE
:1006C000D840386005F12C06032402E055F8044FA9
:1006D000386802F0ADF9E4B20146204600F03AFE77
:1006E0000021204600F016FDB542EFD1F8BD00BF55
:1006F0001888FF1F005125021488FF1F909F0000DB
:10070000A0F10802082A00D97047F8B50C4A0D4C30
:1007100010600D4D00F010FE04F13007032000269C
:1007200001E055F8040F44F8046BC0B2002100F05A
:10073000F1FCBC42F5D1BDE8F840FFF7BBBF00BFFC
:100740001888FF1FBC8FFF1F909F00002DE9F0430A
:1007500085B072490446684600F0F8F969462046BB
:1007600000F06AFA0546684600F0B4F9C5B32C21DA
:10077000204600F075FA051E02DC05B0BDE8F083E6
:100780002B4621460122684600F0A6FA684600F092
:10079000CFFA0646684600F09DF921466A1C684675
:1007A00000F06EFA684600F0C3FA0446684600F0AE
:1007B00091F95B4B0B2E1B68DFD8002CDDDB01228F
:1007C00002FA03F39C42D8DA564A574B12F8260035
:1007D00043F82640214605B0BDE8F04300F09ABC3E
:1007E0005249684600F0B2F96946204600F024FA02
:1007F0000546684600F06EF98DB121460122684633
:1008000000F03EFA684600F093FA0446684600F0AD
:1008100061F9204605B0BDE8F043FFF771BF4449D8
:10082000684600F093F96946204600F005FA05464F
:10083000684600F04FF98DB93E49684600F086F9E8
:100840006946204600F0F8F90546684600F042F98E
:100850004DB105B0BDE8F043FFF732BE05B0BDE8CD
:10086000F043FFF7F9BD3449684600F06FF9694677
:10087000204600F0E1F90546684600F02BF9002D0E
:1008800046D12E49684600F061F96946204600F0DD
:10089000D3F90546684600F01DF9002D3FF46DAF11
:1008A00021460122684600F0EBF9684600F040FA64
:1008B00004280646A8BF042626EAE676684600F025
:1008C00009F9194C1E491F481F4DDFF85490324654
:1008D00000F0D4F806EB460205EB0215114E04F1C8
:1008E00030074FF0010804E00434BC4206F104066E
:1008F0000ED055F8041B0029F6DBD9F8003008FAB1
:1009000003F39942F0DA3078216000F003FCEBE762
:1009100005B0BDE8F043FFF74FBE00BF349F0000B5
:100920001888FF1F909F0000BC8FFF1F389F00009A
:100930003C9F0000409F0000449F0000489F000033
:100940004C9F00002488FF1F2487FF1F30B51D4CDB
:100950002368BFF35B8FDB0785B021D51A4C1B4D95
:1009600001F0B4FA58B101F075FAC1B22A29204653
:1009700007D000F051F901F0A9FA0028F3D105B031
:1009800030BD2146684600F087F86846FFF7DEFE76
:10099000684600F09FF82946204600F0EBF8DFE7B4
:1009A000204600F0FDFA0028D8D00849064800F09B
:1009B000CDF8074A0749044801F020FD204600F021
:1009C000F5FACBE7A88FFF1FAC8FFF1F88A40000AC
:1009D0002087FF1FD50A00002DE9F843144D154C60
:1009E0002E68154FDFF8549040F2EE2801F0A6FB78
:1009F000237883B13B78DB070DD52B68D9F800202D
:100A00009B1A0E2B07D9FFF727FD0D4B1868BDE881
:100A1000F843FFF775BE2B6822789B1B2AB1B3F50C
:100A2000FA6FF0D801F08AFBE0E74345FAD9EAE72C
:100A3000EC8FFF1FCC90FF1FF090FF1FF490FF1F63
:100A40001888FF1FFFF7C8BFFFF780BF00B5036816
:100A500083B040F60D22ADF804205B68022201A9A4
:100A6000984703B05DF804FB034B022888BF034698
:100A700018461B685B6818472488FF1F0EB400B532
:100A800082B003AA52F8041B019203F065F802B089
:100A90005DF804EB03B07047F8B588424FF00005ED
:100AA0000446056045608560057302D08E680F6856
:100AB0000EB92046F8BD701C02F0F8F90028F8D0F5
:100AC000C4E900060570A660394603F08DFA204699
:100AD000F8BD00BF10B50446006802F0EFF92046EB
:100AE00010BD00BFF8B50446154632B9036803B11E
:100AF0001A700023A3602046F8BD43689A420E4650
:100B00001CD90068511C02F09DFC074660B1A36827
:100B1000206065600BB903702768A56031463846D0
:100B200003F062FA2046F8BD206810B102F0C6F961
:100B3000276000236360A3602046F8BD0768A560B6
:100B40003146384603F050FAECE700BF38B50023D1
:100B50000446036043608360037341B108460D4659
:100B600003F0CEFA294602462046FFF7BBFF204697
:100B700038BD00BF38B505460C4649B1084603F0FC
:100B8000BFFA214602462846FFF7ACFF284638BD8B
:100B9000A960284638BD00BF2DE9F8430446006827
:100BA000A36888420D46164609D8C218914206D25B
:100BB0000F1A4FF0010936B92046BDE8F8834FF00F
:100BC0000009002EF8D0626803EB060890450CD9A6
:100BD00008F1010102F036FC0028EDD0A368C4E959
:100BE000000813B903702068A368B9F1000F08D199
:100BF0002946184403F0F8F9C4F808802046BDE8F7
:100C0000F8833246C119184400F0A0F82368002286
:100C100003F80820F0E700BF10B582B000238DF87C
:100C20000410012201A904468DF80530FFF7B4FF36
:100C3000204602B010BD00BF08B58A6883689342A1
:100C400009D3006830B1096839B103F0E9F8B0FAA6
:100C500080F0400908BD002008BD084608BD00BF5F
:100C600083683BB110B50468204603F073F820B1E7
:100C7000001B10BD4FF0FF3070474FF0FF3010BD2C
:100C80002DE9F0418F6897420E46044602D2134682
:100C90003A461F460023A3602373B0682360904246
:100CA000636014D3874228BF0746316811F8078074
:100CB000CB5533689D180DD0284603F021FA2946FC
:100CC00002462046FFF70EFF336803F807802046F0
:100CD000BDE8F081A560F8E79A422DE9F0410446AD
:100CE0000E4602D911461A460B460020A06020731A
:100CF000B76820609742606014D39F4228BF1F46A8
:100D0000336813F80780D85533689D180DD02846EE
:100D100003F0F6F9294602462046FFF7E3FE336862
:100D200003F807802046BDE8F081A560F8E700BF22
:100D3000006808B102F0B6B8704700BF08B5FFF709
:100D400081FEFFF781FE01F0F9F9FAE701B441EA0B
:100D5000000313F003036FD1403A41D351F8043B31
:100D600040F8043B51F8043B40F8043B51F8043B85
:100D700040F8043B51F8043B40F8043B51F8043B75
:100D800040F8043B51F8043B40F8043B51F8043B65
:100D900040F8043B51F8043B40F8043B51F8043B55
:100DA00040F8043B51F8043B40F8043B51F8043B45
:100DB00040F8043B51F8043B40F8043B51F8043B35
:100DC00040F8043B51F8043B40F8043B51F8043B25
:100DD00040F8043B51F8043B40F8043B403ABDD294
:100DE000303211D351F8043B40F8043B51F8043B36
:100DF00040F8043B51F8043B40F8043B51F8043BF5
:100E000040F8043B103AEDD20C3205D351F8043BC4
:100E100040F8043B043AF9D204320AD0D2071CBF8E
:100E200011F8013B00F8013B03D30B7803704B78BA
:100E3000437001BC704700BF0C2A4AD310F0030373
:100E400011D0C3F10403D21ADB071CBF11F8013B18
:100E500000F8013B07D311F8013B00F8013B11F802
:100E6000013B00F8013B11F003033FF475AF30B4D0
:100E7000043AC91AC3F1040C51F8044B022B19D0DF
:100E8000032B0BD0240A51F8043B1D0644EA050449
:100E900040F8044B1C46043AF4D216E0240E51F8F4
:100EA000043B1D0244EA050440F8044B1C46043A86
:100EB000F4D20AE0240C51F8043B1D0444EA050472
:100EC00040F8044B1C46043AF4D20432B1EB0C0156
:100ED00030BC043AA0D3013A11F8013B00F8013BC1
:100EE000F9D20B7803704B7843708B78837001BC18
:100EF000704700BF08B50F4C636B58030DD4636B8C
:100F000059050FD4636B1A0511D4636BDB04F3D559
:100F100000F012F8636B5803F1D500F041FB636BEE
:100F20005905EFD500F008F8636B1A05EDD500F010
:100F300003F8EAE70080044008B5FFF7DBFF00BFD5
:100F4000014B10221A80704700200540704700BFF7
:100F5000094A08B50346106833B169460344A1F550
:100F600080518B4201D2136008BD03F037F80C2387
:100F700003604FF0FF3008BD1C88FF1F0020704742
:100F80004FF0FF30704700BF4FF400534B6000201C
:100F9000704700BF012070474FF0FF30704700BF1F
:100FA0000078B0FA80F04009704700BF0123037059
:100FB000704700BFFEE7FFFF01F1FF3C70B56546DB
:100FC000002401E070460134B0FBF2FE02FB1E0378
:100FD000092B03F130068ABF3733F3B2DBB29042FC
:100FE00005F8013FEED2631C0022CA54C8187CB138
:100FF00062461CF8015F10F801ED8CF800E0A1EBEF
:101000000C030232013B521A23449A420570EFDB73
:10101000084670BD10B40F4B53F8302092F8804250
:101020002CB1012391B182F8803010BC704703EBE2
:10103000C0035B681A6821B922F0020210BC1A6072
:10104000704742F0030210BC1A60704782F800310A
:1010500010BC7047C09F0000034B002210215A6152
:101060005A6018605961704700D00340704700BF54
:10107000F0B54FF0E0244FF400054FF0807CC4F849
:101080000851C4F808C14FF0007CC4F808C11D4ADB
:101090001D481E494FF0806CC4F808C12823002762
:1010A00048F6FF7609254FF0006CC4F808C183B0FC
:1010B00057609660D3605361D3615362D3625363C8
:1010C000D3635364156047608660C3604361056005
:1010D0004F608E60CB604B610D6001F0D3F8FFF77D
:1010E000C5FF0B4C23680093009B132BFAD900F02B
:1010F00011FE23680193019BB3F5967FF9D303B0EA
:10110000F0BD00BF008003400090034000800B4012
:10111000EC8FFF1F28287F4B36D000291B783FDD3E
:10112000012202FA03FC614510B554D2C21E012A05
:1011300070D9202867D0192865D0774A926802FBB9
:10114000011222FA03F3421F1B2A7DD8DFE812F0B6
:10115000C600BF007C007C00B800B1007C007C00B1
:101160007C007C007C007C007C007C007C00AA0071
:10117000A3009C0095007C00CD007C007C007C00DE
:101180007C007C007C00D40018780B2895BFC0F14F
:101190000C000C3801FA00F041FA00F001F0D6B86A
:1011A000212817D85D4B53F8302092F8801203EBBA
:1011B000C00300293CD001215B6882F800110120A6
:1011C0004FF4A27182F8800219601A6822F020029E
:1011D0001A6070477047212814D8504B53F83010CC
:1011E00091F8804203EBC00344B35B6881F8802030
:1011F0004FF4A272012081F880021A601A6822F06E
:1012000020021A6010BD464A926802FB011222FABF
:1012100003F398E7434CA268042802FB011222FA68
:1012200003F270D1404BA2614FF45171596310BD6C
:101230005B68196821F002011960C0E75B681A68F1
:1012400042F003021A60D3E72128DBD87F29D4BFFC
:1012500000210121FFF7DEFE304B03EBC00253F803
:101260003010536801244FF4A27281F880421A6052
:101270001A6822F020021A6010BD27482B4A8361A9
:1012800040F24441916010BD2348284A036140F276
:101290004441516010BD2048254A036440F2444156
:1012A000916110BD1C48224A836340F24441516160
:1012B00010BD19481D4A836240F24441116110BDBE
:1012C00015481A4A036240F24441D16010BD1248E9
:1012D000174A036340F24441116110BD0E48144A9D
:1012E000836440F24441D16110BD0D48114A8361CD
:1012F0004FF45171D16410BD09480E4A03614FF497
:101300005171916410BD084B22614FF45171196302
:1013100010BD00BF2088FF1F00800340C09F000059
:1013200000800B40009003400090044000B0044057
:1013300000C0044000A004400346102B28BF102327
:10134000034A012B38BF012310781370704700BF88
:101350002088FF1F2DE9F0470E4680462C49304675
:1013600001F058FD2B4B002847F6122712BF4FF013
:10137000020A4FF0010A1F4600244FF05E5927FA77
:1013800004F001F051FB4946054601F0A5FB01467A
:10139000304601F053FD30B90134072CEFD1F80984
:1013A00001F042FB05463146284601F049FC4FF06A
:1013B0007C5101F087FA01F055FD4FF6FF7398421A
:1013C00028BF1846A8F10303012B11D9A8F105087D
:1013D0005FFA88F8B8F11B0F08D80F4A012303FA07
:1013E00008F31A4010D113F0016F0BD1BDE8F0875C
:1013F0000A4B002244EACA041A605A6098601C60D2
:10140000BDE8F087064BF5E7064B0022F2E700BF88
:10141000405489400051250233800700009003406A
:1014200000800B4000800340431E032B17D872B688
:101430000C4951F8230080B110B40B4CB0F800C037
:1014400034F81320A2EB0C02D0F804C041F823C0FA
:1014500024F8132062B610BC704762B670470020B3
:10146000704700BF8090FF1FD090FF1F01380328F6
:101470000BD872B6074B53F8203043B100205B689D
:101480000130002BFBD162B6704700207047184630
:10149000F9E700BFA890FF1F10B472B6194A1A4CA2
:1014A000042312F8011B090743F0010C05D554F879
:1014B000331061B154F83C10B9B10433142BF0D19E
:1014C00062B6124B00221A7010BC00F09BBC0F4990
:1014D00004EBC302083050600A780D4844F833002A
:1014E000013A0A7062B610BC7047084A094904EB19
:1014F000CC0308305860137844F83C10013B13705B
:1015000062B6F0E750A100000080FF1FD890FF1FD7
:1015100088004000C8004000421E032A0ED81C4B21
:10152000400140F0100010B4034472B6194CA05CA6
:1015300003281CD8DFE800F01315031870470520B6
:10154000A05413F0080F088814BFC822882208315D
:1015500042EA004259601A6062B610BC704703202C
:10156000EEE708330220EBE708330420E8E70A4BF4
:1015700053F8220038B1094B53F82200416043F878
:10158000221062B6E9E743F82210044BF7E700BFE8
:101590000080FF1FC890FF1FA890FF1FB890FF1F7B
:1015A0002DE9F04FDFF8CCA2DFF8CCB285B03DE0FA
:1015B000B24D9E0805EBC607013A796813F008039F
:1015C000D4B2A1F1080040F0B88055F836204FEAB7
:1015D000124C120C21F808CC00F0A78021F8063C30
:1015E00041F8043CA64B53F82420002A00F0018265
:1015F000A44B53F82420506043F82400A24B33F846
:101600001420944423F814C000F0DCFB002800F000
:10161000E98117F0080F9D4B00F1080018BF5B46E9
:10162000786045F8363008238AF880309AF88030A0
:101630005907DCB21BD5964B1B78ABB195490A789C
:1016400002F0FF032AB1013BDBB20B70002B00F06C
:10165000468391490A7802F0FF032AB1013BDBB2CD
:101660000B70002B00F0EB8104238AF8803014F01B
:10167000080200F0CC819AF89020D3B2120997D1D9
:10168000DFF8F8919B0809EBC30459F8330064684C
:10169000C0F3830009287CD00FD80138012808D86E
:1016A0007E4A158842F22100854200F0FB8149F80C
:1016B00033B001238AF89430B5E70D28F9D1D4E985
:1016C0000007774D49F833B0744E764CC9F81020B6
:1016D00083B240F2816CC9F818202A6063454FF04C
:1016E0000102C6E90007227000F2FF80B3F5D06F57
:1016F00080F0CB82B3F5817F00F0268240F2DE805D
:1017000040F2023293427BD107F07F07042F00F2B0
:101710000881020C40F00581634911F8273043F03D
:10172000020301F82730134670E017F0080F574BFB
:1017300018BF5B4645F8363075E700F063FB5B4940
:101740005B4A51F82430002B00F05781586841F86B
:101750002400115D03F108007860032905D8DFE853
:1017600001F0120F1502042111551A8817F0080F05
:1017700014BFC823882343EA024345F8363052E7B2
:1017800002211155F1E703211155EEE7052111550D
:10179000EBE7434D2A683AB34649424C0F88464826
:1017A00094F800E00678402F3B4628BF4023BEF166
:1017B000000F8EF0010E84F800E046F0020486F07F
:1017C0000106067009EBC400426014BFC8208820DF
:1017D00040EA03401A44FB1A9BB249F834000B80DC
:1017E000002B00F036812A602C4B1A88B2F5A06FCE
:1017F0007FF45FAF9A788AF8982000225A7058E7F1
:10180000B3F5A06F40F08D8000221346B6F806C0F5
:101810002948944528BF944667460278402F28BF40
:10182000402742F0020E3E0409EBCE0846F0C806FF
:10183000C8F8043049F83E6000263B442670BCEBF3
:10184000070782F00106067040F01181BCF13F0FDE
:101850004FF0010509D946F00206027009EBC602F5
:1018600025705360882349F8363001238AF8943074
:101870001FE700BF00200740C80040000080FF1F96
:101880008090FF1F9090FF1FD090FF1F88004000A6
:10189000CC90FF1FCD90FF1FF890FF1FA090FF1F5F
:1018A0007490FF1F7190FF1FC0200740A890FF1F7A
:1018B000C890FF1F7290FF1F7090FF1F802B00F0D9
:1018C0008B81822B2DD107F07F07042F29D8A74ABF
:1018D00000231380A64B13F827309F0740F1FC81AB
:1018E00001231370A14B022290E742F2210C6345C1
:1018F000BBD01DD942F2212293420DD1BFB2002F9D
:1019000082D19C4B1A689C4B1A609C4BC0F30740D9
:1019100000221870134679E742F2213293423FF4D5
:1019200073AF0F238AF8C03001238AF89430C0E6E1
:10193000B3F5086F00F04A81B3F5106FF1D1904B09
:10194000C0F307400425187059F835301A0606D43C
:101950000135142D0CD059F835301A06F8D509EB9D
:10196000C50301355868083800F04CFA142DF2D13F
:10197000844A854B0292854A0192854E854ADFF85A
:1019800018820394009200251C4656F8047B2FB160
:1019900038467F6800F036FA002FF9D1009BD8F85E
:1019A000007043F8045B46F8045C00932FB138469E
:1019B0007F6800F027FA002FF9D1029B48F8045BFA
:1019C00043F8045B0293019B23F8025B01932378A5
:1019D000023B032B00F20981DFE813F03F01040111
:1019E0003F0104016D4A45F8360013780133137046
:1019F00019E643F82400674BFEE5115D022926D065
:101A00007FF611AE03291DD1012313550BE6E00724
:101A10006ED4210621D4A20708D5614B93F8882003
:101A20000221D2B283F8882083F88010E30603D520
:101A30005B4B102283F8802005B0BDE8F08F00F0EA
:101A400059FB11E617F0080F14BF032302231355A7
:101A5000E9E53F2F98BF0022C5E6514B80220D21BA
:101A600083F8C01083F88020A207DFD5D5E746F0C1
:101A700002060270402F09EBC6003A4628BF4022FA
:101A800043601004134440F088000121BA1A49F859
:101A90003600217055D02B60424B1A8001238AF802
:101AA000943006E692885AB93F4AE51D14F8011BA6
:101AB00002F8011FAC42F9D13C4A1268862A3CD098
:101AC0003B4C3C4825780278002D85F001052570B7
:101AD00042F0020482F00102027009EBC4024FF0EE
:101AE0000000506014BFC822882249F83420DEE587
:101AF0002B4B30483049314C022583F8945002700A
:101B00002F480C602F4D48608C600D24CD60FF2065
:101B10000A618A6183F8C04001219F2483F888000C
:101B200083F8800083F8982083F88C0083F8844041
:101B300083F8941005B0BDE8F08F234A0F20107091
:101B4000BEE73F2FA7D890E607F07F07042F3FF6A8
:101B5000E8AE000C7FF4E5AE054A12F8273023F01A
:101B6000020302F82730002213464FE67890FF1F49
:101B7000C0200740EC8FFF1FF490FF1FF090FF1F65
:101B8000CC90FF1FB890FF1FC890FF1FD090FF1F81
:101B90008090FF1F9090FF1FA890FF1FD890FF1FFD
:101BA000002007407290FF1FE790FF1FE890FF1F83
:101BB0007190FF1F7090FF1F0080FF1F8800400082
:101BC000F08FFF1F3090FF1FCD90FF1F484B4949FA
:101BD0001B780B700B4619E6464A00231380454BD1
:101BE000022213E64FF001032370434BB34204F18A
:101BF00001047FF4CAAE414E039CDFF80481414FDB
:101C000000233370042518F8013B3F4AAB541B07EF
:101C100025D445F0020145F0030204350023142DBC
:101C200049F8313049F83230EDD1384F25783A78DB
:101C300042F0020009EBC00C85F00106CCF804303C
:101C4000002D4DD1882382F0010226703A7049F8A8
:101C5000303001238AF894302BE52570C5E700F079
:101C6000B1F8002832D009EBC5030830586049F8B4
:101C7000357000F0A7F808B345F0010309EBC30283
:101C80000830506049F833B0C3E7214A5368002B4D
:101C90003FF447AE000CBFB204E013690C32002BD6
:101CA0003FF43FAE11888142F7D15188B942F4D157
:101CB000000A03280CBF1A781289A7E5337801338C
:101CC000337045F0010349F83300A2E7337849F84F
:101CD000350001333370CCE7064B022296E500BE97
:101CE0002670C82382F001063E7049F83030BCE50A
:101CF000CC90FF1F7890FF1F9090FF1FD890FF1F80
:101D000050A1000088004000C02007407090FF1FD5
:101D1000FCA0000070B500F039FB00231A4A1946F8
:101D200042F8331002EBC3000133142B4160F7D1AA
:101D3000164C174B606B174D40F480206063C2F364
:101D4000072483F89C40144CFF204FF0010CC2F391
:101D50000746120E83F8B0604FF0E02E83F8B420EF
:101D600083F8800083F88800187483F894C0217089
:101D700083F884C0702385F849304FF40072102333
:101D8000CEF80821237270BD0080FF1F0080044040
:101D90000020074000E400E00021074000F0ACB85C
:101DA00000F07CB800F056B800F090B800F076B9BA
:101DB00000F050B90846114600F0BAB8084600F0E5
:101DC0003BB900BF72B60D490B68B3FA83F00B281C
:101DD00010DC4FF00042C24023EA02030B6062B6FF
:101DE000074A00EBC000C10002EBC00000235350C3
:101DF0004360704762B60020704700BF3488FF1F01
:101E0000BC83FF1F0E4BC31AB3F5587F10D20D4A87
:101E1000127872B972B60C4A0C49A2FB0323086807
:101E20004FF000421B0922FA03F303430B6062B632
:101E30007047074A1278002AECD0FFF72DBB00BF8D
:101E4000BC83FF1FD890FF1F398EE3383488FF1FF3
:101E5000CC90FF1F38B50F4C206878B143880288BA
:101E6000C11801339A420D7A02D94380284638BD01
:101E7000FFF7C8FF00232360284638BD064B1B78B8
:101E80002BB10320FFF7D0FA20600028E6D14FF0F5
:101E9000FF35EBE7DC90FF1FCC90FF1F10B5094C1E
:101EA000206818B143881844007A10BD064B1B788F
:101EB0002BB10320FFF7B8FA20600028F2D14FF0D1
:101EC000FF3010BDDC90FF1FCC90FF1F084B094A6C
:101ED0001B6810B594881BB11A885B88D31A1C4400
:101EE0000CB1204610BD00F029F9204610BD00BFFE
:101EF000DC90FF1FD090FF1F0B4B1B789BB110B5E0
:101F00000A4C206848B1FFF77DFF002303202360BF
:101F1000FFF78AFA30B1FFF775FF0320FFF784FA65
:101F20000028F8D110BD7047CC90FF1FDC90FF1F38
:101F30002DE9F04FDFF8EC9083B0012289F8002002
:101F4000019179B3384FDFF8E480019D384EDFF816
:101F5000E4A083463968A1B3B1F802E0CEF1400CA9
:101F6000AC4528BFAC460EEB0C040022A4B2327084
:101F7000A5EB0C054C8001F10802BCF1000F0AD062
:101F80000EF1FF3E7244DC441BF8014B02F8014F96
:101F9000DC45F9D14C883F2C0BD805228AF800206B
:101FA000002DD7D10198002389F8003003B0BDE897
:101FB000F08F40220A800420FFF7AEFA00223A6038
:101FC000EBE798F800202AB348F6014408E0013C0A
:101FD00019D03278BAB900F0B1F898F80020CAB137
:101FE0000420FFF743FA0728F1D84FF0010389F8DE
:101FF0000030FFF7E7FE014638600028ACD1013C15
:1020000089F80000E5D101234FF0FF30337003B0B1
:10201000BDE8F08F00234FF0FF3089F8003003B0A7
:10202000BDE8F08FE190FF1FE490FF1FCC90FF1FF1
:10203000E090FF1FF890FF1F00B583B00346012119
:102040000DF107008DF80730FFF772FF03B05DF860
:1020500004FB00BF38B50E4D0E4C286801232370D9
:1020600028B140880023C0F14000237038BD0A4BDE
:102070001B7813B90020207038BD0420FFF7F6F953
:102080000728F7D8FFF79EFE28600028E9D1F1E77E
:10209000E490FF1FE190FF1FCC90FF1FF8B5114B9C
:1020A0001B788BB1104E114D346801272F7064B12D
:1020B0000F4B00271F706388238021460420FFF701
:1020C0002BFA376000232B70F8BDFFF77BFE084B1F
:1020D000014620B104201C70FFF71EFAF2E71F70C2
:1020E000F0E700BFCC90FF1FE490FF1FE190FF1FBF
:1020F000F890FF1F38B50E4B1B7853B90D4C216873
:1021000041B103F0FF054B880B800420FFF704FA70
:10211000256038BDFFF756FE014620B1BDE83840C6
:102120000420FFF7F9B9044B01221A7038BD00BF33
:10213000E190FF1FE490FF1FF890FF1F2DE9F84387
:10214000324E337863B1324F3A784AB90122D90717
:102150003A7043D49A0726D400225B073A7001D420
:10216000BDE8F8832B4B1A68002AF9D0EFF30582FB
:10217000002AF5D1EFF3108572B6186800283AD01E
:10218000254C2178002936D142691A600123237039
:10219000002A37D0916105B962B60025836845777A
:1021A00098472570DCE7DFF8748098F80020002A53
:1021B000D2D00025DFF868902B4659F823402368D9
:1021C00020461B690135984708B12369984798F85C
:1021D0000020EBB29A42F0D83378BDE7FFF776FEE5
:1021E00068B9104B1B780BB93378B3E7337803F039
:1021F000FE033370AEE7002DB2D162B6B0E700F057
:10220000C3F8EEE7084B1A60C5E700BF3888FF1F28
:10221000F990FF1FFC90FF1F0891FF1F1C91FF1FEB
:102220001091FF1FF8A000000C91FF1F70B5EFF395
:10223000108272B60C4C206880B10C4E00254369A8
:10224000236073B19D6102B962B683684577984790
:10225000EFF3108272B620680028F0D102B962B69E
:1022600070BD3360EFE700BF0491FF1F0091FF1FB7
:10227000FFF7DCBF024A136801331360704700BFE9
:10228000EC8FFF1F2A4B2B4A6020E12118705970F8
:1022900013782948082B34D00A2B20D00C2B274B3D
:1022A0000CBF15213D2112228160C2609960DA6065
:1022B000234B21491B78214ACBB101230B621362C6
:1022C000204B1D491B781D4A012B13D9042B1BD809
:1022D00084234B6253621C4B01221A707047174BC8
:1022E000192113228160C2609960DA60E0E70B6215
:1022F0001362E5E780234B625362134B01221A708D
:1023000070470E4B0121ECE7082B06D885234B6262
:1023100053620D4B01221A707047102B94BF862315
:1023200087234B625362084B01221A70704700BF2B
:10233000004007403988FF1F00B0034000B00B4049
:102340001D91FF1F3A88FF1F1E91FF1F0B4A0C496A
:10235000D36A43F48053D3620B784BB1094B80228C
:1023600083F82120074B80F30C0000B218807047DF
:10237000044BC02283F82120F4E700BF0080044012
:102380001D91FF1F00C00C40704700BF10B584B006
:1023900072B6174A702441200F2180231470D07127
:1023A0009171137013781B06FCD5906862B6114BBF
:1023B000114C984238BF00EB800001A938BF4000A3
:1023C0000A22FEF7F9FD01A92046002311F8012B8E
:1023D00001333AB10A2B20F8022FF7D116232370CC
:1023E00004B010BD5B00DBB2237004B010BD00BFB1
:1023F0000000024080969800C888FF1F03460846E8
:10240000194601F0BDBD00BF81F0004102E000BFF0
:1024100083F0004330B54FEA41044FEA430594EAA4
:10242000050F08BF90EA020F1FBF54EA000C55EADF
:10243000020C7FEA645C7FEA655C00F0E2804FEAB0
:102440005454D4EB5555B8BF6D420CDD2C4480EA92
:10245000020281EA030382EA000083EA010180EAC2
:10246000020281EA0303362D88BF30BD11F0004F10
:102470004FEA01314FF4801C4CEA113102D0404246
:1024800061EB410113F0004F4FEA03334CEA133381
:1024900002D0524263EB430394EA050F00F0A78099
:1024A000A4F10104D5F1200E0DDB02FA0EFC22FA94
:1024B00005F2801841F1000103FA0EF2801843FA88
:1024C00005F359410EE0A5F120050EF1200E012A79
:1024D00003FA0EFC28BF4CF0020C43FA05F3C018B7
:1024E00051EBE37101F0004507D54FF0000EDCF130
:1024F000000C7EEB00006EEB0101B1F5801F1BD3D9
:10250000B1F5001F0CD349085FEA30004FEA3C0CDC
:1025100004F101044FEA445212F5800F80F09A80D2
:10252000BCF1004F08BF5FEA500C50F1000041EBD6
:10253000045141EA050130BD5FEA4C0C404141EBDA
:102540000101013C28BFB1F5801FE9D291F0000FD5
:1025500004BF01460020B1FA81F308BF2033A3F184
:102560000B03B3F120020CDA0C3208DD02F1140C7B
:10257000C2F10C0201FA0CF021FA02F10CE002F1B6
:102580001402D8BFC2F1200C01FA02F120FA0CFCAF
:10259000DCBF41EA0C019040E41AA2BF01EB0451F8
:1025A000294330BD6FEA04041F3C1CDA0C340EDCF6
:1025B00004F11404C4F1200220FA04F001FA02F339
:1025C00040EA030021FA04F345EA030130BDC4F1F7
:1025D0000C04C4F1200220FA02F001FA04F340EAEC
:1025E0000300294630BD21FA04F0294630BD94F09D
:1025F000000F83F4801306BF81F480110134013D84
:102600004EE77FEA645C18BF7FEA655C29D094EAF4
:10261000050F08BF90EA020F05D054EA000C04BF72
:102620001946104630BD91EA030F1EBF002100205D
:1026300030BD5FEA545C05D14000494128BF41F0FC
:10264000004130BD14F580043CBF01F5801130BD60
:1026500001F0004545F0FE4141F470014FF00000EB
:1026600030BD7FEA645C1ABF194610467FEA655C9C
:102670001CBF0B46024650EA013406BF52EA03353E
:1026800091EA030F41F4002130BD00BF90F0000F2C
:1026900004BF0021704730B54FF4806404F1320468
:1026A0004FF000054FF0000150E700BF90F0000F21
:1026B00004BF0021704730B54FF4806404F1320448
:1026C00010F0004548BF40424FF000013EE700BF18
:1026D00042004FEAE2014FEA31014FEA02701FBFA8
:1026E00012F07F4393F07F4F81F06051704732F0DA
:1026F0007F4208BF704793F07F4F04BF41F4002131
:10270000704730B54FF4607401F0004521F000418E
:102710001CE700BF50EA010208BF704730B54FF018
:1027200000050AE050EA010208BF704730B511F019
:10273000004502D5404261EB41014FF4806404F151
:1027400032045FEA915C3FF4D8AE4FF003025FEAD7
:10275000DC0C18BF03325FEADC0C18BF033202EB5B
:10276000DC02C2F1200300FA03FC20FA02F001FAB5
:1027700003FE40EA0E0021FA02F11444BDE600BF58
:102780004FF0FF3C06E000BF4FF0010C02E000BF3D
:102790004FF0010C4DF804CD4FEA410C7FEA6C5C20
:1027A0004FEA430C18BF7FEA6C5C1BD001B050EAC3
:1027B000410C0CBF52EA430C91EA030F02BF90EAAE
:1027C000020F0020704710F1000F91EA030F58BF6D
:1027D000994208BF90422CBFD8176FEAE37040F0CF
:1027E000010070474FEA410C7FEA6C5C02D150EA6D
:1027F000013C07D14FEA430C7FEA6C5CD6D152EA28
:10280000033CD3D05DF8040B704700BF84461046EC
:1028100062468C461946634600E000BF01B5FFF7EB
:10282000B7FF002848BF10F1000F01BD4DF808EDBB
:10283000FFF7F4FF0CBF012000205DF808FB00BF8C
:102840004DF808EDFFF7EAFF34BF012000205DF8E6
:1028500008FB00BF4DF808EDFFF7E0FF94BF012033
:1028600000205DF808FB00BF4DF808EDFFF7CEFF34
:1028700094BF012000205DF808FB00BF4DF808ED73
:10288000FFF7C4FF34BF012000205DF808FB00BF44
:102890004FEA410C7FEA6C5C02D150EA013C0AD15C
:1028A0004FEA430C7FEA6C5C02D152EA033C02D14E
:1028B0004FF0000070474FF00100704780F000407B
:1028C00002E000BF81F0004142001FBF5FEA410308
:1028D00092EA030F7FEA226C7FEA236C6AD04FEA08
:1028E0001262D2EB1363C1BFD2184140484041404D
:1028F000B8BF5B42192B88BF704710F0004F40F4FF
:10290000000020F07F4018BF404211F0004F41F41A
:10291000000121F07F4118BF494292EA030F3FD0E6
:10292000A2F1010241FA03FC10EB0C00C3F12003F9
:1029300001FA03F100F0004302D5494260EB400088
:10294000B0F5000F13D3B0F1807F06D340084FEAF3
:10295000310102F10102FE2A51D2B1F1004F40EBE8
:10296000C25008BF20F0010040EA03007047490050
:1029700040EB0000013A28BFB0F5000FEDD2B0FAED
:1029800080FCACF1080CB2EB0C0200FA0CF0AABF10
:1029900000EBC25052421843BCBFD04018437047AE
:1029A00092F0000F81F4000106BF80F400000132B4
:1029B000013BB5E74FEA41037FEA226C18BF7FEA8B
:1029C000236C21D092EA030F04D092F0000F08BFCD
:1029D0000846704790EA010F1CBF0020704712F0B4
:1029E0007F4F04D1400028BF40F00040704712F1F3
:1029F00000723CBF00F50000704700F0004343F058
:102A0000FE4040F4000070477FEA226216BF08468D
:102A10007FEA23630146420206BF5FEA412390EA50
:102A2000010F40F4800070474FF0000304E000BF46
:102A300010F0004348BF40425FEA000C08BF7047F7
:102A400043F0964301464FF000001CE050EA0102BB
:102A500008BF70474FF000030AE000BF50EA0102D0
:102A600008BF704711F0004302D5404261EB4101BD
:102A70005FEA010C02BF84460146002043F0B643E2
:102A800008BFA3F18053A3F50003BCFA8CF2083A07
:102A9000A3EBC25310DB01FA02FC634400FA02FC10
:102AA000C2F12002BCF1004F20FA02F243EB020017
:102AB00008BF20F00100704702F1200201FA02FC79
:102AC000C2F1200250EA4C0021FA02F243EB02006C
:102AD00008BF20EADC7070474FF0FF0C1CEAD052B0
:102AE0001EBF1CEAD15392EA0C0F93EA0C0F6FD071
:102AF0001A4480EA010C400218BF5FEA41211ED04F
:102B00004FF0006343EA501043EA5111A0FB01313A
:102B10000CF00040B1F5000F3EBF490041EAD3710F
:102B20005B0040EA010062F17F02FD2A1DD8B3F18B
:102B3000004F40EBC25008BF20F00100704790F0FA
:102B4000000F0CF0004C08BF49024CEA502040EA4C
:102B500051207F3AC2BFD2F1FF0340EAC250704712
:102B600040F400004FF00003013A5DDC12F1190F50
:102B7000DCBF00F000407047C2F10002410021FAC2
:102B800002F1C2F1200200FA02FC5FEA310040F1DA
:102B9000000053EA4C0308BF20EADC70704792F053
:102BA000000F00F0004C02BF400010F4000F013A8B
:102BB000F9D040EA0C0093F0000F01F0004C02BF86
:102BC000490011F4000F013BF9D041EA0C018FE7F5
:102BD0000CEAD15392EA0C0F18BF93EA0C0F0AD0FB
:102BE00030F0004C18BF31F0004CD8D180EA010021
:102BF00000F00040704790F0000F17BF90F0004FBA
:102C0000084691F0000F91F0004F14D092EA0C0F9B
:102C100001D142020FD193EA0C0F03D14B0218BF2E
:102C2000084608D180EA010000F0004040F0FE4074
:102C300040F40000704740F0FE4040F44000704710
:102C40004FF0FF0C1CEAD0521EBF1CEAD15392EA8F
:102C50000C0F93EA0C0F69D0A2EB030280EA010C7F
:102C600049024FEA402037D04FF0805343EA111118
:102C700043EA10130CF000408B4238BF5B0042F176
:102C80007D024FF4000C8B4224BF5B1A40EA0C001B
:102C9000B3EB510F24BFA3EB510340EA5C00B3EB4D
:102CA000910F24BFA3EB910340EA9C00B3EBD10F3B
:102CB00024BFA3EBD10340EADC001B0118BF5FEA8D
:102CC0001C1CE0D1FD2A3FF650AF8B4240EBC250B6
:102CD00008BF20F0010070470CF0004C4CEA502077
:102CE0007F32C2BFD2F1FF0340EAC250704740F4C6
:102CF00000004FF00003013A37E792F0000F00F0B8
:102D0000004C02BF400010F4000F013AF9D040EA35
:102D10000C0093F0000F01F0004C02BF490011F4C9
:102D2000000F013BF9D041EA0C0195E70CEAD153C1
:102D300092EA0C0F08D142027FF47DAF93EA0C0FA8
:102D40007FF470AF084676E793EA0C0F04D14B028C
:102D50003FF44CAF08466EE730F0004C18BF31F03E
:102D6000004CCAD130F000427FF45CAF31F0004338
:102D70007FF43CAF5FE700BF4FF0FF3C06E000BFD1
:102D80004FF0010C02E000BF4FF0010C4DF804CDF4
:102D90004FEA40024FEA41037FEA226C18BF7FEA04
:102DA000236C11D001B052EA530C18BF90EA010F06
:102DB00058BFB2EB030088BFC81738BF6FEAE17095
:102DC00018BF40F0010070477FEA226C02D15FEA31
:102DD000402C05D17FEA236CE4D15FEA412CE1D09D
:102DE0005DF8040B704700BF844608466146FFE764
:102DF0000FB5FFF7C9FF002848BF10F1000F0FBD46
:102E00004DF808EDFFF7F4FF0CBF012000205DF83E
:102E100008FB00BF4DF808EDFFF7EAFF34BF0120C3
:102E200000205DF808FB00BF4DF808EDFFF7E0FF5C
:102E300094BF012000205DF808FB00BF4DF808EDAD
:102E4000FFF7D2FF94BF012000205DF808FB00BF10
:102E50004DF808EDFFF7C8FF34BF012000205DF8F2
:102E600008FB00BF42000ED2B2F1FE4F0BD34FF071
:102E70009E03B3EB126209D44FEA002343F00043F0
:102E800023FA02F070474FF00000704712F1610F13
:102E900001D1420202D14FF0FF3070474FF00000E5
:102EA000704700BF0A22002100F064BD024B0146BA
:102EB000186800F00BB800BF888FFF1F024B014657
:102EC000186801F02FBA00BF888FFF1F2DE9F04F5F
:102ED00001F10B06162E83B0044624D8102900F207
:102EE000BA8000F0A3FA102618220220B54F3A4407
:102EF000A2F1080153688B4200F0BA805A68D96881
:102F000022F003021A449D68E9608D60516841F027
:102F100001012046516003F1080500F08DFA2846B2
:102F200003B0BDE8F08F36F0070600F19480B1429F
:102F300000F2918000F07AFAB6F5FC7FC0F09A8139
:102F4000730A00F08F80042B00F26F81B30903F144
:102F5000390003F1380CC3009A4F3B44A3F1080534
:102F60005B689D4206D10CE0002980F22781DB6876
:102F70009D4206D05A6822F00302911B0F29F3DD0F
:102F800060463D69DFF840C265457CD06A6822F042
:102F90000302931B0F2B00F37B81002BC7E904CCAA
:102FA00080F26C81B2F5007F80F01A81D3087968D5
:102FB00001334FEA521E012202FA0EF20A4357F879
:102FC00033E0C5F808E007EBC3010839E9607A602F
:102FD00047F83350CEF80C508310012199409142AC
:102FE00057D8114206D120F003004900114200F1E8
:102FF0000400FAD007EBC0094D468646D5F80C8090
:10300000454508D11DE1002B80F22481D8F80C80C1
:10301000454500F01681D8F8042022F00302931BE6
:103020000F2BF0DD2046D8E9025408EB060146F0EC
:103030000106C8F80460EC60A56043F00104C7E92C
:103040000411C1E902CC4C6048F8023000F0F4F9F8
:1030500008F1080502E00C2323600025284603B090
:10306000BDE8F08F4FF4007340204FF03F0C73E742
:10307000D3689A4208BF02307FF440AF3D69DFF861
:1030800048C1654582D17A688310012199409142F7
:10309000A7D9BD686B6823F003094E4503D8A9EB97
:1030A00006030F2B7ADCDFF824B1494BDBF8002054
:1030B0001B680132334405EB090A00F0338103F544
:1030C00080530F3323F47F6828F00F0841462046D1
:1030D00000F05CFF411C024600F0F380824500F2E4
:1030E000EE803C4B196841441960084600F04E815F
:1030F000DBF80010019301311BBFA2EB0A01091894
:10310000CBF80020196012F0070B00F01781CBF10B
:1031100008010A44CBF5805190440831A1EB080125
:10312000C1F30B0A51462046009200F02FFF421CCB
:10313000DDE9002300F04F81801A00EB0A081968CE
:10314000BA6048F001005144BD425060196000F07F
:103150002981B9F10F0F40F227816868A9F10C0CA1
:103160002CF0070C00F0010040EA0C0068604FF002
:10317000050E05EB0C00BCF10F0FC0E901EE00F2EB
:10318000328150681546144B1A688A4238BF19605C
:10319000124B1A688A4238BF196094E0AA1943F0AA
:1031A000010346F001066E602046BA60536000F0ED
:1031B00043F90835284603B0BDE8F08FD9681A44B2
:1031C000A1E600BFE088FF1FE888FF1FE88CFF1F13
:1031D0005091FF1F2091FF1F4891FF1F4C91FF1F2F
:1031E000B2F5206F4FEA522363D3142B00F2B7805D
:1031F00003F15C01C9005B3307EB010E7958AEF1B6
:10320000080E8E4500F091804B6823F00303934233
:1032100002D989688E45F7D1D1F80CE07A68C5E902
:10322000021ECEF80850CD60D6E6142B59D9542B87
:1032300000F29D80330B03F16F0003F16E0CC300AD
:103240008AE60EF1010E1EF0030F05F108057FF46A
:10325000D5AE51E0424445465368D8F80C1043F0CF
:103260000103536055F8083F2046D9608B6000F099
:10327000E3F8F3E6F00806F1080237E62A442046B0
:10328000536843F001035360083500F0D5F8E5E6D4
:10329000A919204646F0010643F001046E60C7E913
:1032A0000411C1E902CC4C60AB5000F0C5F8083500
:1032B000D4E6930903F13901C90038339CE7BD42D4
:1032C0005FD0BD68686820F003084645A8EB060398
:1032D00002D80F2B3FF762AF204600F0ADF8002573
:1032E000BCE603F15C0003F15B0CC30034E659F863
:1032F00008394B4540F0968010F0030F00F1FF3085
:10330000F5D17B6823EA01037B60490099423FF6CF
:10331000C0AE19B9BDE649000EF1040E1942FAD04B
:10332000704667E603F11008D0E69A104FF00108E6
:103330007B6808FA02F21A437A6070E702EB080130
:103340004942C1F30B0A51462046009200F01EFE8E
:10335000431CDDE900237FF4EFAEDA46EFE6542BA1
:1033600025D8130B03F16F01C9006E3344E7B3F5A1
:10337000AA7F25D8F30B03F1780003F1770CC30083
:10338000EAE5294B186840441860B1E6CAF30B0C13
:10339000BCF1000F7FF4ACAEBD68C84448F001003A
:1033A0006860F0E61546EEE60123536094E7B3F556
:1033B000AA7F23D8D30B03F17801C90077331BE729
:1033C00040F25452934223D8B30C03F17D0003F131
:1033D0007C0CC300C0E5ABF1080BD844A8EB020895
:1033E0004FF0000AABE605F108012046009300F01B
:1033F00099FFBD68009B68681968C4E640F25451A3
:103400008B420BD8930C03F17D01C9007C33F3E6AA
:103410004FF47E737F204FF07E0C9DE54FF47E715C
:103420007E23E9E67B6870E72091FF1F014800F0EA
:1034300061BE00BF9492FF1F014800F05DBE00BF57
:103440009492FF1F10B4044C03460A46206810BC37
:10345000194600F003B800BF888FFF1F2DE9F84F11
:103460001746002900F098800C4607F10B058046AE
:10347000FFF7DCFF162D54F8041C5BD810252A46F4
:10348000AF425CD821F003069642A4F1080962DA43
:10349000BC4BD3F808C009EB0600844500F09780C8
:1034A000D0F804C02CF0010303445B68DB0768D448
:1034B0002CF0030C06EB0C03934247DACB0710D435
:1034C00054F8083CA9EB030ADAF8043023F00301AE
:1034D0008C44B444944580F211817318934280F275
:1034E000E88039464046FFF7F1FC0746E0B154F862
:1034F000043C23F001034B44A0F10802934200F086
:10350000D280321F242A00F2F580132A00F2AC8008
:1035100003462246116819605168596092689A60A2
:103520002146404600F0FEFE4046FFF785FF384644
:10353000BDE8F88F25F00705002D2A46A0DA0C23F8
:10354000C8F8003000273846BDE8F88F1E46D0E99D
:103550000223D3609A60731B0F2B22D8D9F8043052
:1035600003F0010333434E44C9F80430736843F059
:103570000103736040462746FFF75EFF3846BDE80B
:10358000F88FC907ADD454F8083CA9EB030ADAF860
:10359000041021F00301A0E7BDE8F84F1146FFF742
:1035A00095BCD9F8042009EB050102F001024E4454
:1035B00043F001032A43C9F804204B60736843F0C9
:1035C000010308317360404600F0ACFED2E7DCF83E
:1035D000040020F0030B06EB0B0C05F110008445F2
:1035E0004DDAC9073FF57DAF54F8081CA9EB010A75
:1035F000DAF8041021F003018B44B34458453FF737
:103600006CAF5746DAF80C1057F8080F321F242A0F
:10361000C160886000F2DB80132A40F2D680216806
:10362000CAF808106168CAF80C101B2A00F2DF8083
:1036300008340AF110022168116061685160A168C4
:1036400091600AEB0501ABEB050242F001029960C3
:103650004A60DAF8043003F001032B434046CAF80D
:103660000430FFF7E9FE6EE7236803606368436098
:103670001B2A68D804F1080200F108034AE709EBA5
:1036800005029A60ACEB050343F00103536054F864
:10369000043C03F001032B43404644F8043CFFF78D
:1036A000CBFE27464FE750F8043C23F003031E44AB
:1036B00051E75746DAF80C1057F8080F321F242A42
:1036C000C16088604CD8132A48D92168CAF808100C
:1036D0006168CAF80C101B2A56D808340AF1100287
:1036E0001E462368136063685360A3689360D146E5
:1036F0003C4630E7214600F05FFA11E7D0E90213BB
:103700005746CB60996057F8081FDAF80C30CB6049
:10371000321F242A99602DD8132A29D92368CAF880
:1037200008306368CAF80C301B2A42D808340AF102
:10373000100322681A6062685A60A2689A6066463E
:10374000D1463C4607E7A3688360E368C360242A48
:1037500026D004F1100200F11003DBE63A46BFE781
:10376000214638461E46D14600F026FA3C46F2E68F
:103770003B46DEE7214638466646D14600F01CFA55
:103780003C46E8E6E088FF1FA168CAF81010E1682F
:10379000CAF81410242A20D010340AF118029FE726
:1037A000236903616169416104F1180200F11803A2
:1037B000B0E6A368CAF81030E368CAF81430242AC7
:1037C00021D010340AF11803B3E73A4633E7214613
:1037D000384600F0F1F9164B33E72269CAF8182091
:1037E0006269CAF81C2018340AF1200278E7A1683F
:1037F000CAF81010E168CAF81410242A0DD0103449
:103800000AF1180217E72369CAF818306369CAF881
:103810001C3018340AF120038BE72269CAF81820FB
:103820006269CAF81C2018340AF1200203E700BFBD
:10383000E088FF1F012B2DE9F84F41D0242B1F46B4
:103840003ED880464A488E4675461EF801BB10F8A1
:103850000B4014F00804F7D1BBF12D0F71D0BBF170
:103860002B0F08BF9EF800B06FF0004908BF05F1AC
:10387000020E002B42D0102B55D0B9FBF7F60025D5
:10388000284607FB169A05E033D007FB00C0012548
:103890001EF801BBABF1300CBCF1090F06D9ABF13E
:1038A000410CBCF1190F12D8ABF1370C634517DD91
:1038B000B5F1FF3FECD08642E6D24FF0FF35E7E7A7
:1038C00000F08CFB162303600020BDE8F88FABF1FD
:1038D000610CBCF1190F03D8ABF1570C6345E7DC61
:1038E0006B1C25D084B9002AEFD095BB1160BDE8D0
:1038F000F88FE245C9DA4FF0FF35C9E7BBF1300F69
:1039000004D00A273B46B8E74042ECE79EF8003077
:1039100003F0DF03582B20D110279EF801B03B465F
:103920000EF1020EA9E7BBF1300F19D01F46A4E734
:103930002223C8F8003072B10EF1FF314846116001
:10394000D5E79EF800B04FF0004905F1020E0124C2
:103950008FE78146F0E74846B7E708273B468CE704
:103960009EF8000000F0DF005828D5D01F4684E7FD
:103970009DA1000010B4044C84461346206810BC7E
:103980000A466146FFF756BF888FFF1F024A034968
:10399000034800F0EDB800BFF08CFF1F5D68000029
:1039A000688EFF1F0C4B4168994210B5044601D048
:1039B00002F054FFA168094B994202D0204602F060
:1039C0004DFFE168064B994204D02046BDE8104007
:1039D00002F044BF10BD00BF5491FF1FBC91FF1FF8
:1039E0002492FF1F2DE9F8432A4C2B4B2B48DFF87C
:1039F000B090DFF8B0802C4F186000250423082217
:103A0000294604F15C00294E6566C4E90253C4E905
:103A10000055C4E90455A56100F04AF9244B6367D9
:103A20000822294604F1C400C4E90749C4E909870A
:103A3000C4E91A55C4E91E55C4F8CC502567C4F82A
:103A40008050E66200F034F91A4BC4F8DC302946A5
:103A500004F16803082204F59670C4F88430C4E9C0
:103A60002298C4E92476C4E93455C4E93855C4F829
:103A70003451C4F8D850C4F8E85000F019F904F1F2
:103A8000D003C4E93C98C4E93E76C4F8EC30BDE804
:103A9000F88300BF5491FF1F8C92FF1F8D390000E7
:103AA000996A0000BD6A0000FD6A00001D6B0000FD
:103AB000090001001200020010B504460A4800F097
:103AC00019FB636B23B9094B094A1B68626323B175
:103AD000BDE81040044800F00FBBFFF783FFBDE8CE
:103AE0001040014800F008BB9892FF1F8C92FF1F06
:103AF000A5390000014800F0FDBA00BF9892FF1FF1
:103B0000014800F0F9BA00BF9892FF1FF0B5ADF57B
:103B1000057D04AF009313464FF400720E460392E6
:103B2000394603AA054600F0F3F988B10446024677
:103B3000039B3146284600F03BFABC42039004D078
:103B40002846214600F0EEFB03980DF5057DF0BDFB
:103B50004FF0FF30F9E700BF10B4044C8446134621
:103B6000206810BC0A466146FFF7D0BF888FFF1F50
:103B70002DE9F84380460F4616464FF00009D6E976
:103B80000154013D11D4A389012B05F1FF3508D95A
:103B9000B4F90E300133214603D04046B84749EA14
:103BA00000096B1C04F16804EDD13668002EE6D1E3
:103BB0004846BDE8F88300BF88420DD98B18834280
:103BC0000AD900EB020CBAB1624613F801CD02F833
:103BD00001CD9942F9D170470F2A0ED8034602F160
:103BE000FF3C4AB10CF1010C013B8C4411F8012B54
:103BF00003F8012F6145F9D1704740EA01039B07A3
:103C000050D1A2F1100370B501F1200C23F00F0583
:103C100001F1100E00F11004AC441B095EF8105CB9
:103C200044F8105C5EF80C5C44F80C5C5EF8085CD0
:103C300044F8085C5EF8045C44F8045C0EF1100E75
:103C4000E64504F11004E9D1013312F00C0F01EB49
:103C5000031102F00F0400EB031327D0043C24F0FF
:103C600003064FEA940C1E441C1F8E465EF8045B4C
:103C700044F8045FB442F9D10CF1010402F00302EC
:103C800003EB840301EB840102F1FF3C4AB10CF128
:103C9000010C013B8C4411F8012B03F8012F614505
:103CA000F9D170BD02F1FF3C03469BE72246EBE7EA
:103CB000830730B548D0541E002A3FD0CAB203460D
:103CC00001E0013C3AD303F8012B9D07F9D1032C05
:103CD0002DD9CDB245EA05250F2C45EA054536D943
:103CE000A4F1100222F00F0C03F1200EE6444FEA7B
:103CF000121C03F1100242E9045542E90255103248
:103D00007245F8D10CF1010214F00C0F03EB021212
:103D100004F00F0C13D0ACF1040323F003030433BD
:103D2000134442F8045B9342FBD10CF003042CB122
:103D3000C9B21C4403F8011B9C42FBD130BD644650
:103D40001346002CF4D1F9E703461446BFE71A46A0
:103D5000A446E0E711F0FF01034644D0820732D1C8
:103D600010B5046841EA012E4EEA0E4E8EEA0402B6
:103D7000A2F1013323EA0203A4F1013222EA040290
:103D8000134313F0803F0FD150F8044F84EA0E0C18
:103D9000A4F10133ACF1013223EA040322EA0C025C
:103DA000134313F0803FEFD0037823B936E010F8C7
:103DB000013F002B32D09942F9D110BD8A4211D077
:103DC0009A071846CCD0184613F8012B002AF5D1D3
:103DD000104670479907184607D0184601330278F5
:103DE000002AF7D170478207F7D10268A2F10133A8
:103DF00023EA020313F0803F08D150F8042FA2F108
:103E0000013323EA020313F0803FF6D00378002B3E
:103E1000E8D010F8013F002BFBD17047184610BDC9
:103E2000002A3ED040EA01039B0730B584462FD1DB
:103E3000032A2DD90B4608E0043A8446194625D0BA
:103E40001EF0803F22D1032A22D90468194653F874
:103E5000045BA4F1013EAC4284462EEA040E00F15C
:103E60000400E9D09CF800000C78A0421BD1E64683
:103E700068B11EF8010F11F8014FA2EB0E03A0422A
:103E800003F1FF330FD11CEB0303F1D1002030BD50
:103E90009CF800000C78844205D1012AF6D0E64651
:103EA000E6E710467047001B30BD00BF40EA010343
:103EB0009B0730B501D1032A0FD8844601F1FF3E9C
:103EC00007E01EF8011F03F8011B541EC1B19C46F8
:103ED00022466346002AF4D130BD0B46844619467B
:103EE00053F8045BA5F1013424EA050414F0803F83
:103EF000E4D1043A032A4CF8045B1946EFD8DDE715
:103F00009444002CE8D003F8011B6345FBD130BD7D
:103F100030B5146815469BB01A4609B1002C19D16A
:103F200000214FF42273ADF80C30009104914FF64C
:103F3000FF7302910591ADF80E3069461E9B00F0AB
:103F40000DFB002813DB009B286000221A700498E8
:103F50001BB030BD4FF4C16300910491ADF80C303B
:103F60002146E4DA8B23036000201BB030BD002023
:103F7000EEE700BF014B93F828017047FC8CFF1F50
:103F800013460A460146022000F028B938B5074D0D
:103F90000022044608462A60FCF7DAFF431C00D0E2
:103FA00038BD2B68002BFBD0236038BD3094FF1F39
:103FB00038B50C46084D8446114620461A46002363
:103FC0002B606446FCF750FD431C00D038BD2B68C5
:103FD000002BFBD0236038BD3094FF1F014B1868C5
:103FE000704700BF888FFF1F80EA0102844612F0ED
:103FF000030F4FD111F0030F32D14DF8044D11F0E2
:10400000040F51F8043B0BD0A3F101329A4312F094
:10401000803F04BF4CF8043B51F8043B16D100BF6D
:1040200051F8044BA3F101329A4312F0803FA4F1FE
:1040300001320BD14CF8043BA24312F0803F04BF85
:1040400051F8043B4CF8044BEAD023460CF8013BF2
:1040500013F0FF0F4FEA3323F8D15DF8044B70479C
:1040600011F0010F06D011F8012B0CF8012B002ADA
:1040700008BF704711F0020FBFD031F8022B12F0C9
:10408000FF0F16BF2CF8022B8CF8002012F47F4F84
:10409000B3D1704711F8012B0CF8012B002AF9D18C
:1040A000704700BF70B50D4E0D4D761BB61006D093
:1040B000002455F8043B01349847A642F9D1094E33
:1040C000094D761B06F044FAB61006D0002455F8C8
:1040D000043B01349847A642F9D170BD5CA50000AD
:1040E0005CA5000064A500005CA50000704700BF4F
:1040F000704700BF704700BF704700BFFFFFFFFF62
:1041000090F800F06DE9024520F007016FF0000C17
:1041100010F0070491F820F040F049804FF00004BF
:104120006FF00700D1E9002391F840F000F108009A
:1041300082FA4CF2A4FA8CF283FA4CF3A2FA8CF3D2
:104140004BBBD1E9022382FA4CF200F10800A4FA39
:104150008CF283FA4CF3A2FA8CF3E3B9D1E904238D
:1041600082FA4CF200F10800A4FA8CF283FA4CF3C4
:10417000A2FA8CF37BB9D1E9062301F1200182FA7E
:104180004CF200F10800A4FA8CF283FA4CF3A2FA84
:104190008CF3002BC6D0002A04BF04301A4612BA92
:1041A000B2FA82F2FDE8024500EBD2007047D1E995
:1041B000002304F00305C4F100004FEAC50514F024
:1041C000040F91F840F00CFA05F562EA05021CBFF5
:1041D00063EA050362464FF00004A9E72DE9F047C2
:1041E000DFF874A00646DAF8000098460F469146BC
:1041F000FFF780FF194B1C6824B365681F2D24DC72
:104200005EB96B1C0235DAF80000636044F8257073
:10421000FFF772FF0020BDE8F08704EB8501012362
:10422000C1F88890D4F88821AB401A43022EC4F814
:104230008821C1F80881E4D1D4F88C211A43C4F84C
:104240008C21DEE7064C1C60D7E7DAF80000FFF7A8
:1042500053FF4FF0FF30DEE78C8FFF1F2C94FF1FC2
:104260009C92FF1F024B13B1024800F005B8704743
:1042700000000000C56B0000002301461A461846E6
:10428000FFF7ACBFF8B5244F0C460646FFF7CEF853
:10429000BB685D68C4F57E610F3125F003054B19DD
:1042A00023F47F6323F00F03A3F58054B4F5805FFC
:1042B00007DB00213046FFF769FEBB682B449842BC
:1042C00004D03046FFF7B8F80020F8BD6142304610
:1042D000FFF75CFE01300DD0104ABB682D1B45F086
:1042E00001055D60136830461B1B1360FFF7A4F8DF
:1042F0000120F8BD00213046FFF748FEBA68831A56
:104300000F2BDEDD43F001035360054B03491B68AF
:10431000C01A0860D5E700BFE088FF1F2091FF1F8B
:10432000E88CFF1F002961D0F8B50C460646FFF760
:104330007DF854F8042C7B4FA4F1080522F001010C
:1043400005EB010CB868DCF80430604523F003038A
:1043500000F08B80D207CCF8043032D454F8082C0B
:10436000AD1A1144AA6807F1080082426AD00CEB2A
:104370000304D4F804E0EC68D4601EF0010FA260DE
:1043800000F0978041F001036B60CCF80010B1F5AC
:10439000007F35D27868CB080122490901338A4071
:1043A000024357F833107A6007EBC302083AC5E9B5
:1043B000021247F83350CD603046BDE8F840FFF7B1
:1043C0003BB80CEB03025268D00710D4194407F134
:1043D0000800DCF80830834273D0DCF80C20DA6087
:1043E000936041F001036B606950D0E7704741F082
:1043F0000103B1F5007F44F8043CCCF80010C9D3A8
:10440000B1F5206F4FEA512348D28B0903F13900EF
:1044100003F13802C300F818FB580838984259D005
:104420005A6822F003028A4202D99B689842F7D167
:10443000D868C5E902308560DD603046BDE8F840E7
:10444000FEF7FABF0CEB03025268D20763D40B44A9
:10445000DCE90212CA60916043F001026A603046F2
:10446000EB50BDE8F840FEF7E7BF0B44D10707D497
:1044700054F8082CAD1A1344D5E90212CA609160B1
:1044800043F001026A60284ABD6012689A4293D8DC
:10449000264B30461968FFF7F5FE8DE7142B0AD935
:1044A000542B1FD80B0B03F16F0003F16E02C300F6
:1044B000B1E719448DE703F15C0003F15B02C3002F
:1044C000A9E741F00103C7E90455C5E902006B60A3
:1044D000695071E779689210012404FA02F20A43E4
:1044E0007A60A6E7B3F5AA7F06D8CB0B03F1780074
:1044F00003F17702C3008EE740F25452934206D88C
:104500008B0C03F17D0003F17C02C30083E74FF4C1
:104510007E737E227FE741F001036B60CCF80010D0
:104520004AE700BFE088FF1FEC8CFF1F5091FF1F80
:1045300082B049B15AB16BB113780B601278101E7A
:1045400018BF012002B0704701A9002AF3D110461C
:1045500002B070476FF00100F4E700BF2DE9F04FA3
:10456000D9B00C460C9190460E93824602F0E8FAC0
:10457000036819931846FFF7C3FD0822179000211E
:1045800028A8FFF795FBA3891F0603D52369002BF5
:1045900000F03F8700232FAA0024CDE92D33CDE979
:1045A0001A33CDE91C331393189309930023CDE9F3
:1045B00014342C9291464446A046784BD3F8E450EC
:1045C000FFF7D8FC034628A80090424624A950468D
:1045D000A847002800F0B080C0F2A680249A252ABF
:1045E000034601D09844E8E7B8EB0407064640F0DC
:1045F000A78000234FF0FF328DF887309B460B9346
:1046000008F1010898F8003008922B25202608F1BF
:104610000108A3F120025A2A00F2C280DFE812F05A
:10462000E602C000C000E102C000C000C0006A0095
:10463000C000C00008028402C0001302C702C0000C
:10464000C2025B005B005B005B005B005B005B0029
:104650005B005B00C000C000C000C000C000C00024
:10466000C0004301C00089011D0243014301430111
:10467000C000C000C000C0001802C000C000960208
:10468000C000C000C000B101C000A902C000C0004D
:10469000DD06C000C000C000C000C000C000C000F7
:1046A000C0004301C0008901E2014301430143010D
:1046B0007702E2017F00C0008902C0005F02DA06D3
:1046C00032027F00C000B1017C00B406C000C0000F
:1046D000B806C0007C00A3F13002002118F8013BAD
:1046E00001EB810102EB4101A3F13002092AF5D966
:1046F0000B918EE7504602F023FA43681C9318464C
:10470000FFF7FEFC1D900746504602F019FA836839
:104710001A93002F40F0B18598F8003077E798F8A9
:1047200000304BF0200B72E70822002128A8FFF789
:10473000BFFA0123984440E7B8EB0407064611D0BE
:104740002E9B3B442E932D9B0133072BC9E9004739
:104750002D9319DC09F10809099B3B440993002EAC
:104760007FF447AF2E9B002B41F001820C9BB3F9E5
:104770000C3013F0400F099B18BF4FF0FF33099323
:10478000099859B0BDE8F08F0C992CAA504603F057
:104790004BFB0028EAD10DF1BC09DDE7FC8CFF1FC3
:1047A0001093002BDED000228DF8FC3001238DF811
:1047B000872007930D920A930892129216921192F3
:1047C0003FAC1BF0020302D00799023107911BF0A6
:1047D00084010F9105D10B9907980F1A002F00F350
:1047E00082832E9E82B10122C9F804202D9A0132C3
:1047F00001360DF18701072A2E962D92C9F8001077
:1048000000F3BD8309F1080983B12D9B22AA01336E
:104810000236C9F80020072B4FF002022E962D9386
:10482000C9F8042000F3C08309F108090F9B802B0D
:1048300000F08182089B0A9A9F1A002F00F3BC8225
:104840001BF4807F40F01E820A9BC9F804301E448E
:104850002D9BC9F800400133072B2E962D9300F3B2
:10486000378309F108091BF0040F05D00B9B079A49
:104870009C1A002C00F3A483099B0B9A07998A4287
:10488000ACBF9B185B180993002E40F0CA8200232E
:104890002D930D9B1BB10D995046FFF743FD0DF174
:1048A000BC09444688E610930E9B073323F00701AA
:1048B000F1E80223CDE91423DDE9142323F00045B8
:1048C0000E9116461046B34B29464FF0FF32FDF7C6
:1048D000DFFF002840F0FC84AE4B304629464FF005
:1048E000FF32FDF7B7FF002840F0F284DDE9140144
:1048F00000220023FDF7A4FF002841F038809DF836
:104900008720A54CA54B2BF0800B10994729C8BFD9
:104910001C46002303210D9307910A9108931293DB
:1049200016931193002A3FF44CAF079B0133079372
:1049300047E7432B109303D01BF0100F00F0518575
:104940000E9E082200212AA83FACFFF7B1F92AAB3E
:1049500056F8042B2146504602F09AF903460133DB
:104960000A9001F0C3820A9B0E9623EAE373079331
:1049700000228DF887200D920892129216921192C1
:104980001FE70E9F109357F8044B00238DF88730D4
:10499000002C00F04D85109B532B00F0D4861BF0AB
:1049A0001003119340F0CF86089B5D1C01F0CC8072
:1049B00011991A46204602F01BF90D90002801F0CB
:1049C00051830D9B11999DF887200E971B1B0A930D
:1049D00023EAE373079373230891129116910D91C3
:1049E00010939FE71BF0200F10930E9B3CD00733D2
:1049F00023F007031A4611465B6851F8082B0E9105
:104A00001946002BC0F20184089B013300F0A882F4
:104A100052EA01032BF0800540F0A382089B002B93
:104A200040F0A482AB46002308930A9358ACFFE001
:104A30000E9B53F8042B0B92002A80F20C840B9AE5
:104A40000E9352420B9298F800304BF0040BDEE5C7
:104A500098F800304BF0080BD9E54BF0100B1BF029
:104A6000200F10930E9BC2D11BF0100F40F0FE835D
:104A70001BF0400F00F0F68333F9042B0E93D1178F
:104A80000B46BEE70E9B53F8042B0E9347F63003FC
:104A9000ADF888307820424B18934BF00205002186
:104AA000022310900020089C8DF88700601C00F005
:104AB000A88052EA010025F0800B40F0A180002C74
:104AC00040F09586002BAED115F001030A9300F05B
:104AD000C78330238DF85F310DF25F14A8E01BF01F
:104AE000200F40F0E5831BF0100F40F086861BF08E
:104AF000400F40F07F871BF4007F00F07E860E9B06
:104B0000099953F8042B0E931170444654E598F814
:104B10000030682B03BF98F801304BF4007B08F19C
:104B200001084BF0400B72E598F800308DF8875083
:104B30006DE598F800306C2B03BF98F801304BF00E
:104B4000200B08F101084BF0100B60E510934BF0BF
:104B5000100B1BF0200100F04A830E9B073323F05B
:104B60000703596853F8082B0E932BF48065002334
:104B700098E710934BF0100515F0200100F0288302
:104B80000E9B073323F00703596853F8082B0E9345
:104B9000012387E7FFFFEF7FA0A20000A4A200008F
:104BA000B0A2000098F800304BF0800B2FE5414692
:104BB00011F8013B2A2B01F07F82A3F13002092A70
:104BC000884698BF002101F2768118F8013B01EB7D
:104BD000810102EB4101A3F13002092AF5D90891C4
:104BE00017E598F800304BF0010B10E59DF8873081
:104BF000002B7FF491AD98F800308DF8876006E5C2
:104C00005D46012B00F0AD81022B58AC1FD11898E6
:104C100002F00F031209C35C04F8013D42EA01727D
:104C2000090952EA0103F3D158AB1B1BAB460A93A7
:104C30000A9908989DF8872081424FF00003B8BF79
:104C400001460D9307911293169311936AE602F0B1
:104C50000703D20842EA4172C908303352EA01061A
:104C6000204604F8013DF2D1E907DDD5302BDBD039
:104C70003023023804F8013C58AB1B1AAB460A93A8
:104C80000446D5E7109B652B40F3DC80DDE9140179
:104C900000220023FDF7CAFD002800F0C88101238F
:104CA000C9F804302D9BBD4AC9F8002001330136F4
:104CB000072B2E962D9300F3398509F10809239BC4
:104CC000139A934280F2C282179B199A1E44C9E933
:104CD00000232D9B2E960133072B2D9300F38D83FC
:104CE00009F10809139B5C1E002C7FF7BCAD102C4A
:104CF0002D9BAB4D40F35585324610270C9E05E0A9
:104D000009F10809103C102C40F34A850133103298
:104D1000072BC9E90057CDE92D32F1DD2CAA314628
:104D2000504603F081F8002840F08380DDE92D3201
:104D30000DF1BC09E6E70B9B079A9F1A002F7FF73E
:104D400079AD102F2D9B964D23DD324626460C9CC7
:104D500004E0103F102F09F1080918DD013310326B
:104D60001021072BCDE92D32C9F80050C9F80410E5
:104D7000EFDD2CAA214650460DF1BC0903F054F892
:104D8000002856D1103F102FDDE92D32E6DC3446E5
:104D9000164601333E44072BCDE92D36C9F80050A5
:104DA000C9F8047000F31685089B0A9A9F1A002F11
:104DB00009F108097FF744AD102F2D9B784D22DDB6
:104DC000324626460C9C04E0103F102F09F10809DA
:104DD00017DD013310321021072BCDE92D32C9F830
:104DE0000050C9F80410EFDD2CAA2146504603F00C
:104DF0001BF8F0B9103F102FDDE92D320DF1BC0981
:104E0000E7DC3446164601333E44072BCDE92D3608
:104E1000C9F80050C9F8047000F3CD8109F1080900
:104E20000EE50C992CAA504602F0FEFF00283FF434
:104E30002EAD0D9B002B3FF499AC0D995046FFF71A
:104E400071FA93E4139B012B40F36E812D9FC9F8F7
:104E5000004001231F440136072FC9F804302E9665
:104E60002D9700F3D98109F10809179B199A013789
:104E70001E44072FC9E90023CDE92D7600F3D9811F
:104E800009F10809DDE9140100220023FDF7CEFC39
:104E9000002840F06781139B0137013B01341E4419
:104EA000072FC9F800402D97C9F804302E9600F35B
:104EB0004C8109F108091B9BC9F8043001371E44D5
:104EC000072F26ABCDE92D76C9F800307FF7C9ACA6
:104ED0000C992CAA504602F0A7FF0028A9D12E9EBB
:104EE0000DF1BC09BFE4102FDDE92D212D4D27DD8B
:104EF000CDE91E381026D046A2460C9C04E0103F97
:104F0000102F09F1080916DD01321031072AC9E90D
:104F10000056CDE92D21F2DD2CAA214640460DF1A7
:104F2000BC0902F081FF002840F0F283103F102FEF
:104F3000DDE92D21E8DC54461E9BC246DDF87C806D
:104F4000C9F8005001327E18072ACDE92D26C9F88C
:104F5000047000F3CC839DF8872009F1080941E42F
:104F60005D460A2A71F1000380F029833032012363
:104F70008DF85F21AB460A930DF25F1458E60C9949
:104F80001E932CAA504602F04FFF00287FF451AF29
:104F90002E9E1E9B0DF1BC0936E400BFE0A200006E
:104FA000F4A20000E4A200000C992CAA504602F0E2
:104FB0003BFF00287FF43DAF2E9E0DF1BC0935E488
:104FC000102C2D9BB84D1FDDDDF830B0102704E00C
:104FD000103C102C09F1080916DD01331036072B9F
:104FE000C9E90057CDE92D36F2DD2CAA59465046C5
:104FF0000DF1BC0902F018FF00287FF41AAF103C35
:10500000102CDDE92D36E8DC01332644072BC9E9F5
:105010000054CDE92D367FF72FAC0C992CAA5046C1
:1050200002F002FF00287FF404AF2E9E24E42399AF
:10503000002940F32783119D139B9D42A8BF1D4665
:10504000002D0BDD2D9B01332E44072BC9E90045B4
:105050002E962D9300F3DD8609F10809119F002D8E
:10506000A8BF7F1B002F00F3F481119B1BF4806FFE
:1050700023440A9340F01482239B139A934203DB48
:105080001BF0010F00F0A584179A19991644C9E97D
:1050900000122D9A2E960132072A2D9200F3C68611
:1050A00009F10809139AA518D41A0A9BED1AA5420A
:1050B000A8BF2546002D0DDDC9F800302D9BC9F88D
:1050C000045001332E44072B2E962D9300F3BE86F9
:1050D00009F10809002DA8BF641B002C7FF7C3ABA2
:1050E000102C2D9B714D40F35C83324610270C9E93
:1050F00005E009F10809103C102C40F351830133FD
:105100001032072BC9E90057CDE92D32F1DD2CAA69
:105110003146504602F088FE00287FF48AAEDDE971
:105120002D320DF1BC09E6E71BF0010F7FF48EAEC6
:105130002D9FC9F8004001231F440136072FC9F8ED
:1051400004302E962D977FF7B4AE0C992CAA5046BA
:1051500002F06AFE00287FF46CAEDDE92D760DF1D9
:10516000BC09A8E6139B5C1E002C7FF7A4AE102C94
:105170004E4D40F34C83324610230C9E05E009F15E
:105180000809103C102C40F3418301371032072FDF
:10519000C9E90053CDE92D72F1DD2CAA3146504604
:1051A00002F042FE00287FF444AEDDE92D720DF1DD
:1051B000BC091023E5E70C992CAA504602F034FEF6
:1051C00000287FF436AE2E9E0DF1BC09FFF738BBE8
:1051D00015F0100360D115F0400200F073830E98B3
:1051E00050F8042B0E90194692B201235AE41BF09A
:1051F000100368D11BF0400200F056830E9850F85F
:10520000042B0E90194692B2AFE4524261EB410179
:105210005D462D20012346E40C992CAA504602F04D
:1052200003FE00287FF405AEDDE92D760DF1BC0903
:105230001BE60C992CAA504602F0F6FD00287FF4DC
:10524000F8ADDDE92D760DF1BC091BE61BF0010F71
:105250003FF409AB38E50E9398F80030FFF7D7B963
:1052600058ACE5E41BF4007F40F0BD8353F8042BF9
:105270000E93D1170B46FFF7C4BB1A9B002B3FF4CC
:105280004BAA1A9B1B78002B3FF446AA98F80030D3
:105290004BF4806BFFF7BBB90E9B53F8042B0E93B6
:1052A0000123FFF7FFBB00BFE4A20000F4A200004F
:1052B0000E9B099853F8041B0E93C217C1E9000214
:1052C0004446FFF779B90E9B53F8042B0E934CE438
:1052D000DDE9140102460B46FDF7DAFA002840F03A
:1052E0007586109B612B00F05B85412B00F0AC852F
:1052F000089B0133109B23F02003079300F0638485
:10530000472B04D1089B002B08BF01230893DDE93C
:1053100014010A46002A4BF48073CDF83CB0C0F269
:10532000E1859B46002316461E9307460D93109B6E
:10533000413B252B00F26783DFE813F0520465033D
:105340006503650349044E0465036503650365034E
:10535000650365036503650365036503650365030D
:1053600065036503650365036503650365036503FD
:1053700065036503650365036503650365036503ED
:105380006503650349044E0410935D46FFF7F4BBC3
:105390001093B74B18931BF0200100F0FC800E9B7C
:1053A000073323F00703596853F8082B0E931BF0BB
:1053B000010F0AD052EA010307D0109B8DF8893003
:1053C00030234BF0020B8DF888302BF480650223DC
:1053D000FFF768BB1093FFF7BCBB1093A54B189366
:1053E000D9E70E9B012153F8042B07918DF8FC207F
:1053F0000E930A913FACFFF7BBBA0C992CAA50460A
:1054000002F012FD00287FF414AD2E9E0DF1BC09B0
:1054100068E440215046FDF759FD0C9B1860186167
:10542000002800F060860C9A40235361FFF7B2B861
:10543000089B0D94062B214628BF0623089422467C
:1054400007938D4C0E970A93129116911191FFF7C5
:1054500069BA102F2D9B894D40F34582324626466E
:105460000C9C05E009F10809103F102F40F3398228
:10547000013310321021072BCDE92D32C9F800502D
:10548000C9F80410EEDD2CAA2146504602F0CCFCEF
:1054900000287FF4CEACDDE92D320DF1BC09E3E745
:1054A000139B0A9DCDF83C804A46DDF85890CDF814
:1054B00028B0E31808931A9FDDF874B0DDF8308047
:1054C000129B10943146B9F1000F2ED083BB013FDF
:1054D00009F1FF391C9BC2E9003B2D9B0133594464
:1054E000072B2E912D935FDC0832089B38785B1BCD
:1054F0008342A8BF0346002B1E460BDD2D980130CA
:1055000019440728C2E900532E912D9000F35681CB
:1055100038780832002EACBF841B0446002C0BDC0C
:105520000544129BB9F1000FD0D1002B00F0D483B9
:10553000129B013B1293CDE7102C2D981DDD1026F8
:1055400004E0103C102C02F1080216DD01304B4B38
:1055500010310728C2E90036CDE92D01F1DD2CAA72
:105560004146504602F060FC00287FF462AC103CDB
:10557000102CDDE92D012FAAE8DC01303F4B5460EF
:1055800021440728CDE92D01136000F3FB8338780F
:1055900008320544C5E71BF0100300F0BC800E9BE9
:1055A00053F8042B0E9302E72CAA4146504602F012
:1055B0003BFC00287FF43DAC2E992FAA95E7CDF84F
:1055C00034902F4BDDF86890CDF81C8005F480678F
:1055D0004FF0000C58AC4FF0CC3B0A9505E00A2A7E
:1055E00071F1000134D342463146501840F10000B9
:1055F000A3FB005626F0030505EB9605401B151A84
:1056000061F1000E0BFB05F603FB0E66A5FB03859F
:105610002E4408F0010E0525AEFB055E2D184FEA5D
:105620005808303504F8015C48EAC6780CF1010CE2
:10563000013C7608002FD2D099F800008445CED1E5
:10564000BCF1FF0FCBD00A2A71F1000180F09881E4
:105650000A9DCDF8689058AB1B1BDDF81C80DDF867
:105660003490CDF84CC0AB460A93FFF7E1BA00BFC7
:10567000B0A20000C4A20000D8A20000F4A2000062
:10568000CDCCCCCC0123C9F804302D9BBA4AC9F843
:10569000002001330136072B2E962D9300F38C81C9
:1056A00009F10809002940F0BE80139A0BF00103AC
:1056B00013433FF4D8A8179B19999A19C9E9001305
:1056C0002D9B2E920133072B2D9300F36E8209F14F
:1056D00008091399C9F8004001338E18072BCDE94A
:1056E0002D36C9F804107FF7BCA8FFF7F1BB0C9961
:1056F0001E932CAA504602F097FB00287FF499AB2A
:105700009DF887202E9E1E9B0DF1BC09FFF76AB8FD
:10571000C246FFF78EBB1BF0400200F0B8800E9827
:1057200050F8042B0E90194692B240E60C992CAA20
:10573000504602F079FB00287FF47BAB2E9E0DF1E2
:10574000BC09FFF7BCBA2AAE0822002130462594D6
:10575000FEF7AEFA089B5A1C00F0D4800025CDF865
:105760001C80CDF834B0A8469B460CE03FA95046BB
:1057700001F08EFA431C404400F0B883584508DC21
:1057800000F035848046259A525933460435002A64
:10579000ECD1CDF82880DDF834B0DDF81C80BEE017
:1057A000164601332644072BC9F80050C9F80440B7
:1057B000CDE92D367FF755A8FFF78ABB2CAA4146C5
:1057C000504602F031FB00287FF433AB38782E9935
:1057D0002FAA9FE60C992CAA504602F025FB002820
:1057E0007FF427AB2E9E0DF1BC09FFF723B8012BE8
:1057F0005D467FF409AAFFF7B9BB0E9B099953F8E0
:10580000042B444611600E93FEF7D6BE16460137B0
:105810002644072FCDE92D76C9F80050C9F8044079
:105820007FF747AB91E4179B19989A19C9E90003D0
:105830002D9B2E920133072B2D9300F3B68109F196
:1058400008090029BFF645AF4F4210314B4D80F299
:10585000888349461026A1460C9C04E00831103F7D
:10586000102F40F37C8301331032072BC1E900561F
:10587000CDE92D32F2DD2CAA2146504602F0D4FAB1
:1058800000287FF4D6AADDE92D322FA9E7E70E9B89
:105890001BF400711ABF114653F8042B53F8042B64
:1058A0000E9318BFD2B282E50E9B1BF400711ABF93
:1058B000114653F8042B53F8042B0E9318BFD2B2A1
:1058C000FFF753B90E9B15F400711ABF114653F838
:1058D000042B53F8042B0E9318BFD2B20123FFF709
:1058E000E1B83446164601333E44072BCDE92D3648
:1058F000C9F80050C9F8047000F34A8109F1080999
:10590000FFF7B3BB00231946009625AA504601F0C5
:10591000E5F9034601330A9000F0E88225940A9BDA
:10592000002B3DD0632B00F3298100230D933FAC66
:10593000082200213046FEF7BBF90A9D00962B464F
:1059400025AA2146504601F0C9F9854240F0C4839A
:105950000A990E970023635421EAE1719DF887208C
:1059600008930791129316931193FEF7DBBF2D2234
:105970008DF88720FEF7C5BFE0A20000F4A200006A
:105980001D9B1C99E41A1A462046FEF78FFA99F8D7
:105990000120A54B0AB109F101094FF0000C22E6E4
:1059A0000A9B9DF887200E97CDE907331293169333
:1059B00011930D93FEF7B6BF0C992CAA504602F036
:1059C00033FA00287FF435AA23992E9E0DF1BC09E5
:1059D00068E6139A0A99A5186D1AD41AA542A8BFA9
:1059E0002546FFF777BB13F9042B0E93D1170B460F
:1059F000FFF707B80E9B099953F8042B0E931180FB
:105A00004446FEF7D9BD089B0A9302232AA90491B4
:105A100025A90A9D039123A900933A46334601958F
:105A20000291504601F090FA079B472B044600F084
:105A3000A381462B054405D10378302B00F0B882B2
:105A4000239B1D443846314600220023FCF7EEFE1E
:105A5000002800F066812B461B1B1393079B472BE6
:105A600000F04A81079B462B00F00082239B119394
:105A7000119B079A013B412A239300F023829DF852
:105A800040200021002BB8BF119B8DF89820BABF91
:105A9000C3F101032D222B22092B8DF8992040F30D
:105AA0004F820DF1AF05614E2A46104686FB032159
:105AB000DA17C2EBA10202EB8201A3EB4101303104
:105AC00000F8011C19466329134600F1FF32ECDC93
:105AD0003033D9B2831E9D4202F8011C40F2E982A4
